:10000000731020B0731020B893000000130100009B
:10001000930100001302000093020000130300008C
:100020009303000013040000930400001305000074
:10003000930500001306000093060000130700005C
:100040009307000013080000930800001309000044
:1000500093090000130A0000930A0000130B00002C
:10006000930B0000130C0000930C0000130D000014
:10007000930D0000130E0000930E0000130F0000FC
:10008000930F0000970101009381018A17810100FD
:100090001301018C9382C180178301001303438BEA
:1000A00023A0020093824200E3CC62FE732540F15C
:1000B000930510006370B500130500009305000060
:1000C000EF0080010F00F00F73D040806F00000040
:1000D000731005806780000037F50080130101F67A
:1000E0001305858A232C8108232A910823282109B6
:1000F000232E1108232631092324410923225109E3
:1001000023206109232E7107232C8107232A9107BD
:100110002328A1072326B107EFD0105583A54185D9
:1001200003A6018583A3818037F700808326871289
:100130009394030103A9C18413D8044193081000C8
:10014000230F1105231EB100231FC100231001033B
:10015000232CD10263140900130970008320C1010C
:10016000232E2103E39A000CE304080E832BC10322
:1001700037FC0080930CCC1713FD1B0093FD2B0064
:10018000131E0D01935E0E01333FB0012322910334
:10019000231E010493F24B00B387EE016388020033
:1001A000938F170013950F01935705019305007D59
:1001B00033D5F50213070000232AA102E3180D200E
:1001C000E3980D22E39C0220631C0D68639E0D2EB4
:1001D000638A0200032601038315C101032541033D
:1001E000EF50D037832281036388026C130CC10166
:1001F000732F00B8732800B0F32900B8630A3F07D3
:10020000732F00B8732800B0F32B00B863027F0788
:10021000732F00B8732800B0F32A00B8630A5F0593
:10022000732F00B8732800B0F32D00B86302BF0528
:10023000732F00B8732800B0F32600B8630ADF02FA
:10024000732F00B8732800B0732D00B86302AF039A
:10025000732F00B8732800B0F32400B8630A9F001E
:10026000732F00B8732800B0F32F00B8E312FFF922
:1002700023AA018123ACE181F32320B8732420B0A9
:10028000F32E20B8638AD307F32320B8732420B059
:10029000732520B86382A306F32320B8732420B00B
:1002A000732620B8638AC304F32320B8732420B0D4
:1002B000F32520B86382B304F32320B8732420B05D
:1002C000F32220B8638A5302F32320B8732420B0AA
:1002D000F32820B863821303F32320B8732420B0DB
:1002E000732320B8638A6300F32320B8732420B0FB
:1002F000732E20B8E392C3F923A2818423A47184CE
:10030000EFA0D00413050C00EF800040EFA0901385
:10031000F32720B8732720B0732C20B8638A87078F
:10032000F32720B8732720B0732920B863822707EA
:10033000F32720B8732720B0732B20B8638A670592
:10034000F32720B8732720B0F32020B86382170466
:10035000F32720B8732720B0F32920B8638A370326
:10036000F32720B8732720B0F32B20B863827703DC
:10037000F32720B8732720B0F32D20B8638AB70184
:10038000F32720B8732720B0F32620B8E392D7F8DC
:1003900023AEE18223A0F184732600B8F32200B0DB
:1003A000732D00B8630AA607732600B8F32200B0C5
:1003B000F32400B863029606732600B8F32200B057
:1003C000732F00B8630AE605732600B8F32200B065
:1003D000732800B863020605732600B8F32200B044
:1003E000F32F00B8630AF603732600B8F32200B0B7
:1003F000F32E00B86302D603732600B8F32200B0D0
:10040000732500B8630AA600732600B8F32200B073
:10041000F32500B8E312B6F883A8418183AC81814B
:100420000355C1013384124133B38200B3039641B3
:100430009305000023A6518023A8C180B3846340A4
:10044000EF90103B930505000355E101378C000048
:1004500013095CB0EF90D0399305050003550102F4
:10046000EF901039032A410393050500131E0A017A
:1004700013550E01EF90D037930B0500631425013F
:100480006F00D071636CA95CB72000009389208F46
:10049000E300356FB75D00009387FDEA631AF576D8
:1004A00037F7008013054792EFD0101C938C8D60B6
:1004B000B7E60000377D0000232691019389465A54
:1004C000130A9DA76F00405D8318E1010319C10164
:1004D0008320410393990801B3E72901032AC1024C
:1004E0006394070093071000930AFAFF13FBCAFFF7
:1004F00013044B00930800006388003A938B1800A4
:10050000338E7B03138C3B00938D4B00938E5B00EB
:10051000131F3E0063721F0A938F1B00B385FF03F6
:1005200093880B0013856B001396350063761608CD
:1005300013831F003307630293880F0093837B00AC
:100540009316370063FA160633078C0393882B0043
:1005500013183700637218063389BD0393080C0023
:100560009319390063FA1904338ADE0393880D0066
:10057000931A3A0063F21A04330BA50293880E0013
:10058000931C3B0063FA1C02338D73029308050031
:10059000931B3D0063F21B0293880300938B1800AA
:1005A000338E7B03138C3B00938D4B00938E5B004B
:1005B000131F3E00E3621FF6B3801803139D100063
:1005C000B30CA4016380082C370C01001305100044
:1005D000930E0000330E9441939318001303FCFF15
:1005E000B307F502931D050113DF0D01934FF5FFCE
:1005F000B3851F0113061500B386A500B304A640FA
:1006000013F936003388D30313D7F7419359070101
:10061000338A3701B37A6A00B3873A41330BFF005C
:10062000931B0B0193D00B01330C1F00338F0C0174
:10063000937DFC0F23101F00B30FEE012390BF0129
:1006400093052F0063F61421630A090E9306100028
:10065000630ED9089304200063069904B307F602D9
:1006600013160601135906013308BE0013062500B0
:1006700093054F0013D7F74193590701338A370188
:10068000B37A6A00B3873A41330BF900931B0B012D
:1006900093D00B01330C190023111F00937DFC0F25
:1006A0002310B801330FF602931F060193D40F01F4
:1006B0003309BE0013061600938525009356FF41AB
:1006C00013D80601B3070F0133F76700B3070741DB
:1006D000B389F400139A0901935A0A01338B540128
:1006E000239F55FF937BFB0F23107901B300F60284
:1006F000131C0601935D0C01330FBE00938525008A
:1007000013061600B30FA64093D4F04113D9040189
:10071000B386200133F86600B30728413387FD0014
:100720009319070113DA0901B38A4D01239F45FF8D
:1007300013FBFA0F23106F0163FC1F11B300F602C5
:10074000930D1600931B060113D90B01139C0D0189
:10075000135A0C01130F260093140F01930F360048
:1007600013DB040193D7F04113D70701B380E000F6
:10077000B3FB6000338CEB40B38D8D03B304890170
:1007800093960F0113D806019396040113D706011F
:100790002390E5003309E900B309BE009377F90F10
:1007A00093DBFD4113DC0B01B38D8D01B3F46D00C0
:1007B000B3868441330FDF023307DA0013190701D0
:1007C0002390F90093570901330AFA002391F500A9
:1007D000937BFA0F2391790193858500935AFF410A
:1007E00093DD0A01B304BF01B3F66400338FB64151
:1007F000B38FEF033307EB01131907019357090177
:10080000330BFB00239EF5FE137AFB0F2392490165
:10081000938009001306460093D9FF4193DB090139
:10082000B38A7F01B3FD6A00B3877D41B304F8004A
:100830009396040113DF06013308E801239FE5FFC7
:10084000937FF80F330CA6402393F001E3681CEF6D
:10085000938E1E0063F81E03130506006FF05FD829
:100860000316C10183258102EF00105C0328C10338
:100870002320A104937D280093724800E38A0D94FD
:100880006FF09FC43385AC01130DF5FF1376CDFFD8
:100890009305460023248104232691052328B104CF
:1008A000232211056FF0DF92930C6B00130D2000D3
:1008B0009308F0FF6FF05FD19308100037B3C404C2
:1008C000232C1103130CC10113090340130B000067
:1008D0008323810313942300330E740093101E00AE
:1008E000232C1102732D00B8F32400B0732700B835
:1008F000630AED06732D00B8F32400B0F32700B8A7
:100900006302FD06732D00B8F32400B0F32900B88C
:10091000630A3D05732D00B8F32400B0F32B00B833
:1009200063027D05732D00B8F32400B0F32A00B8EC
:10093000630A5D03732D00B8F32400B0F32D00B8F3
:100940006302BD03732D00B8F32400B0F32600B892
:10095000630ADD00732D00B8F32400B0732F00B8D4
:10096000E312EDF913050C0023AA918023ACA181B9
:10097000EF709059F32800B8732300B0732800B8C3
:10098000638A0807F32800B8732300B0F32F00B878
:100990006382F807F32800B8732300B0F32E00B881
:1009A000638AD805F32800B8732300B0732500B814
:1009B0006382A804F32800B8732300B0732600B83C
:1009C000638AC802F32800B8732300B0F32500B887
:1009D0006382B802F32800B8732300B0F32200B892
:1009E000638A5800F32800B8732300B0F32300B8DB
:1009F000E39278F8330593403334A300338EA84153
:100A000023A661801306090093060B00B3058E40F0
:100A100023A81181EFD0405EE30C05EA1309A00082
:100A2000335BA9020327810393001B00B30717025E
:100A3000232CF1026FF0CFFB93091000639830F381
:100A4000631608F2373A1534930A5A41232E51019E
:100A5000130B6006231061036FF04FF1379900000C
:100A6000130529A0E380AB0E37F600009302569FD2
:100A700063905B1AB7F5008013858595EFD0C03E73
:100A8000B7280000938C78FD37E3000023269101FE
:100A90009309A9E3130A4371B7FD008003AF4D1218
:100AA00013090000130D000063100F066F001007FC
:100AB00003D6A5FF6308361137F300802324B10065
:100AC0009386090093050D00130583A1EFD0C0396B
:100AD0008323810003DEC3FF93071E0013970701E2
:100AE000135F0741239EE3FF130D1D0083A04D12EA
:100AF00033092F0113180D01931F0901135D08011C
:100B000013D90F41E37C1D00131C4D003308AC01C9
:100B1000931F2800930E01063385FE010326C5FDB1
:100B2000231E05FE93721600638A0202035665FFB8
:100B30002324A10063044603B7F8008093050D0049
:100B400093060A001385489BEFD00032832581006D
:100B500003D3C5FF93031300239E75FE330EAC0130
:100B600093102E0093070106338717008326C7FDD5
:100B700013FF2600630C0F02035687FF2324E100B6
:100B8000630696038326C10037F8008093050D00A5
:100B90001305489EEFD0402D832F810083DECFFFC9
:100BA00083A6CFFD13851E00239EAFFE330CAC0140
:100BB00093122C009308010613F64600B3855800E3
:100BC000E31806EE039FC5FF6FF01FF22324910385
:100BD0001307100063880DDE6F0080013304A70245
:100BE000B3848C002328910263020DDE6FF05FC78F
:100BF0003306A702130317009313030113D703014E
:100C0000B386CC002326D102638002DC6FF01FFD87
:100C10001309F0FFB7FD008083A5C18103AC4182B9
:100C200003AE418383A8C18283A3418483A6C18389
:100C300083A0818203AF018203A3818483AC0184FA
:100C400083AA018303A58183338C8541B3B78501D2
:100C5000338D7640338BC84193050A0037FA008004
:100C6000B3091F4033B8A60133B76801B38F6C4096
:100C7000B38EAA4013058AA4B38C0F41B38AEE4009
:100C8000B389F940EFD0401EB7F20080138502A669
:100C90001306040093860400EFD0001DB7F6008011
:100CA0001385C6A71306040093850400EFD0C01B6C
:100CB000B7F800801385C8A913060D0093850C00B2
:100CC000EFD0801AB7F30080138503AC13060B0036
:100CD00093850A00EFD0401937FE008013050EAE51
:100CE00013060C0093850900EFD0001837460F005B
:100CF000130A062433334D031306040093860400BD
:100D0000B3854C0333054D03B3856500EFD0C02E8A
:100D1000374F0F0013060F2493060000EFD0007129
:100D200093860400130604002324A10093850C007D
:100D300013050D00EFD0402C0326810037FD008005
:100D40009305050013054DB0EFD0001237D89A3B3C
:100D5000930F08A0B33EFC0313060B0093860A0012
:100D60003387F9033305FC03B305D701EFD0C0285F
:100D7000B7470F001386072493060000EFD0006BDF
:100D800093024006B389320313060B00930C05004F
:100D900093860A0033BB820333858203B3856901DE
:100DA00037FC0080EFD0402513860C00930505002A
:100DB00013054CB1EFD0400BB3384403B7B6C404AD
:100DC000138606409306000037FC0080B38A440374
:100DD00033054403B3851A01B7FA0080EFD0C02170
:100DE000337D4503B7B3C404138603409306000064
:100DF0001305040093850400EFD0002037FE008027
:100E00009305050013054EB313060D00EFD0C00582
:100E1000832C810383A94D121306040033834C03F2
:100E20009386040037FD0080338F490333B54C03AC
:100E3000B3356F023308E50333056F02B305B8001D
:100E4000EFD0801B37460F001306062493060000E0
:100E5000EFD0C05DB38F990313060400938604009E
:100E6000130B050033B49903B3B44F0333074403A2
:100E700033854F03B305970037FA0080EFD0C017D2
:100E800013060B009305050013050AB5EFC0D07DCE
:100E900083AE4D1283228103B7F700801385C7B656
:100EA000B385D203EFC0507C93054CB813850AB9C3
:100EB000EFC0907BB7F60080B7F80080938586BAC4
:100EC0001385C8BAEFC0507AB7F3008093054DBCC4
:100ED0001385C3BCEFC0507993850B00B7FB00802E
:100EE00013854BBEEFC05078032CC103137E1C004A
:100EF000630C0E0E83A04D126388000E130A0000CF
:100F0000B7FC008093194A0033834901131F230063
:100F100013050106B305E50103D665FF13850CC073
:100F200093050A00EFC0507413061A00131B060144
:100F300013540B01931F440003A84D12B3848F0078
:100F400013972400130A010613850CC0B30EEA00A0
:100F5000930504006378040903D66EFFEFC0D070D8
:100F600093071400139C0701935A0C0193964A00AF
:100F700083A24D12B3885601139D280093030106E6
:100F800013850CC0B38BA30193850A0063FC5A043C
:100F900003D66BFF93891A00EFC0106D13930901FC
:100FA000135B0301131F4B0003AE4D12B3056F011A
:100FB000139825001306010613850CC0330406019F
:100FC00093050B006370CB03035664FFEFC0D06939
:100FD000930F1B0003A54D1293940F0113DA040124
:100FE000E362AAF2032CC10393702C00638C000E01
:100FF00083AC4D12638A0C3C130B000037FC00805D
:10100000931E4B00B3826E0193972200930A010650
:10101000B386FA0003D686FF93050B001305CCC1F7
:10102000EFC09064130D1B0093130D0193DB0301BC
:10103000139E4B0083A84D12B3097E011393290020
:10104000130B01061305CCC1330F6B0093850B0006
:1010500063F81B0903568FFF930C0106EFC0D060A5
:1010600093851B001396050113540601931F44003A
:1010700003A84D12B3848F00139A24001305CCC12A
:1010800033874C0193050400637C0405035687FFF6
:10109000EFC0905D930214009397020193DA070169
:1010A00093964A0083AE4D12B3885601139D2800D3
:1010B000930301061305CCC1B38BA30193850A00EA
:1010C00063F0DA0303D68BFFEFC0105A138E1A00B9
:1010D00003A54D1293190E0113DB0901E362ABF274
:1010E000032CC10393704C00638A000E03A34D12BE
:1010F000630E031C130D0000B7F40080131F4D0096
:101100003308AF019315280013060106B30FB6008C
:1011100003D6AFFF13041D0093050D00138584C390
:10112000931C0401EFC0505493DA0C0113974A004A
:1011300003AA4D12B30E570193922E009307010696
:10114000138584C3B386570093850A0063F84A0960
:1011500003D6A6FF138D1A00130C0106EFC0D05062
:1011600093130D0193DB0301139E4B0083A84D12D3
:10117000B3097E01139B2900138584C333036C01DB
:1011800093850B0063FC1B050356A3FF930C01061C
:10119000EFC0904D13881B009315080113DA050169
:1011A00013164A0003AF4D12B30F460113942F00DC
:1011B000138584C3B38A8C0093050A006370EA0325
:1011C00003D6AAFFEFC0504A13071A0003A54D1219
:1011D000931E070113DD0E01E362ADF283A04D12F1
:1011E000130A0000B7F400806382000E93124A00D5
:1011F000B38742019396270093080106B383D80072
:1012000003D643FF93050A00138544C5EFC0D045BC
:10121000130E1A0093190E0113DB0901131C4B0066
:1012200083AB4D1233036C01131F23001308010617
:10123000138544C5330AE80193050B0063787B09E5
:1012400003564AFFEFC0504293051B00939F0501D0
:1012500013D40F01931C440003A64D12B38A8C00D3
:1012600013972A00930E0106138544C5338DEE00B3
:1012700093050400637CC40403564DFF93090106E3
:10128000EFC0903E930714009396070193DB06018D
:1012900093984B0083A24D12B3837801139E2300D1
:1012A000138544C5338BC90193850B0063F05B0242
:1012B00003564BFF138C1B00EFC0103B03A54D12D0
:1012C00013130C01135A0301E362AAF2630C09041D
:1012D00063522007B7F000801385C0CBEFC0D03831
:1012E0008320C109032481098324410903290109B9
:1012F0008329C108032A8108832A4108032B010896
:10130000832BC107032C8107832C4107032D010781
:10131000832DC1061301010A67800000032A4103DF
:101320006FF09F8FB7F40080138504C7EFC0D033F0
:101330006FF01FFBB7FD008013850DCDEFC0D032DD
:101340006FF01FFAB7F300801385838CEFC0D031A4
:1013500037CE0000930C2EE5376C0000B7D70000A5
:101360002326910193097CE4138A074B6FF0CFF297
:1013700037FF008013058F98EFC0102F37980000BB
:10138000930F7074B7EE0000930948D82326F1013B
:10139000930C7074138A1E3C6FF00FF0B7F000804E
:1013A0001385808FEFC0502C37170000930C9719CE
:1013B000B7460000373D0000232691019389F69B34
:1013C000130A0D346FF04FED13774C00E31007F064
:1013D0006FF0DFE0631E0602831705001397070115
:1013E0009352070113F307F093D38200336673001F
:1013F0002310C50083960500139806019358080131
:1014000013FE06F093DE8800336FDE012390E501C2
:1014100003152500839525003305B540678000003E
:10142000930F100093031000630E051C9306000039
:10143000130F00009302000013F77F009382120045
:1014400093070500130600006306070893051000C4
:10145000630AB70613032000630067061308300011
:101460006306070593084000630C1703130E500032
:101470006302C703930E60006308D701832705004A
:1014800013061000638A070A83A7070013061600D5
:101490006384070A83A7070013061600638E0708F4
:1014A00083A70700130616006388070883A70700B1
:1014B000130616006382070883A7070013061600A9
:1014C000638C070683A707001306160063860706CA
:1014D0006304F60783A70700130616001307060028
:1014E000638C070483A707001306160063860704AE
:1014F00083A70700130627006380070483A707005C
:1015000013063700638A070283A707001306470004
:101510006384070283A7070013065700638E070042
:1015200083A70700130667006388070083A70700E7
:1015300013067700E39E07F893850F00630C0606F9
:10154000638C0508638A07080323450083A84700C6
:1015500003170300839E280003182300131E0701AE
:10156000135E0E01135E8E00137707F03367C70119
:101570002310E300039E08003308D84113130E0123
:10158000935E030113770EF013DE8E003363C70101
:1015900023906800635200059388070083A7070023
:1015A0009385F5FF6384060223A016019386080045
:1015B000E31806F8638A0502638C07029388070024
:1015C0009385F5FF83A70700E39006FE138F0800BD
:1015D000938608006FF0DFFD930805001306F6FF01
:1015E000032505006FF01FFC13850700E39607E451
:1015F00023A00600638C7200939F1F0013050F0049
:101600006FF09FE2232000007300100013050F000D
:101610006780000003970500839725002310E500ED
:101620002311F50067800000930E40013355D50368
:10163000B786FFFF23A0050093880608138E0501D7
:1016400093878500130800001305E5FF1317350085
:101650003387E50023A2E5001313250023101701AB
:101660002311070033036700930847006376EE00F9
:101670009302870063EC6254630E0510131F06018A
:10168000B78FFFFF137E7500935E0F019306000076
:1016900013CFFFFF630E0E089302100063025E0873
:1016A0009303200063087E06930F3000630EFE054F
:1016B0009302400063005E049303500063067E02C1
:1016C000930F6000630CFE019386870063F6E600CB
:1016D0009382480063E8626093061000138E8700CF
:1016E0006364EE5693861600138E87006366EE5091
:1016F00093861600138E87006376EE00938248006F
:1017000063EC625893861600138E87006368EE467A
:1017100093861600138E8700636CEE129386160074
:10172000138E8700636AEE0C938616006304D50659
:10173000138E87006366EE3E138E87009386160035
:101740006362EE38938F8700138E160063EEEF30DE
:10175000938F87009382260063EAEF2A938F870096
:101760009382360063E6EF24938F870093824600CE
:1017700063E2EF1E938F87009382560063EEEF16AD
:10178000938F87009382660063ECEF109386760058
:10179000E310D5FA13075000B35EE50237450000A9
:1017A0001307002093071000130EF5FF6F00C00110
:1017B0002311F800930807109396080193871700E8
:1017C00013D7060113080F00032F0800937F07703B
:1017D00033C3C700B3E36F00B3F2C301630A0F0062
:1017E00003284800E3E6D7FD231158006FF09FFC63
:1017F000138505006FF0DFC293824800E3F662F2C2
:10180000939F060193D30F01B3CFD301939F3F0062
:1018100093FF8F0793F3730023A0070133E87F0042
:1018200023A0F500931F880023A21701B3E30F0143
:10183000239078002391E80193861600138807000F
:101840009388020093070E00E314D5EE6FF09FF427
:1018500093824800E3F462EC939F060193D30F0157
:10186000B3CFD301939F3F0093FF8F0793F3730090
:1018700023A0070133E87F0023A0F500931F880011
:1018800023A21701B3E30F01239078002391E8010D
:10189000138807009388020093070E006FF01FE87B
:1018A00093834800E3F463EE139E0201135E0E017E
:1018B000B342DE0193923200137E7E0093F28207E0
:1018C00023A00701B3E2C20123A0F5001398820010
:1018D00023A21701336E58002390C8012391E80119
:1018E00093867600138807009388030093870F0080
:1018F000E310D5E46FF01FEA93834800E3F263E856
:10190000139E0201135E0E01B342DE019392320078
:10191000137E7E0093F2820723A00701B3E2C20187
:1019200023A0F5001398820023A21701336E5800FC
:101930001388070093870F002390C8012391E801C3
:10194000938F87009388030093826600E3F0EFE4AF
:101950006FF01FF593834800E3FE63E0139E0201DE
:10196000135E0E01B342DE0193923200137E7E00BD
:1019700093F2820723A00701B3E2C20123A0F5007E
:101980001398820023A21701336E580013880700B2
:1019900093870F002390C8012391E801938F87005C
:1019A0009388030093825600E3FCEFDC6FF0DFF4D2
:1019B00093834800E3FA63DA139E0201135E0E017B
:1019C000B342DE0193923200137E7E0093F28207CF
:1019D00023A00701B3E2C20123A0F50013988200FF
:1019E00023A21701336E58001388070093870F0056
:1019F0002390C8012391E801938F87009388030007
:101A000093824600E3F8EFD66FF0DFF4938348004B
:101A1000E3F663D4139E0201135E0E01B342DE01AE
:101A200093923200137E7E0093F2820723A0070177
:101A3000B3E2C20123A0F5001398820023A217018C
:101A4000336E58001388070093870F002390C80156
:101A50002391E801938F87009388030093823600D7
:101A6000E3F4EFD06FF0DFF493834800E3F263CE4A
:101A700093120E0113DE0201B342DE019392320093
:101A8000137E7E0093F2820723A00701B3E2C20116
:101A900023A0F5001398820023A21701336E58008B
:101AA0001388070093870F002390C8012391E80152
:101AB000938F87009388030093822600E3F0EFCA98
:101AC0006FF0DFF493824800E3FE62C6939F060145
:101AD00093D30F01B3CFD301939F3F0093FF8F07A1
:101AE00093F3730023A0070133E87F0023A0F500E0
:101AF000931F880023A21701B3E30F011388070087
:101B000093070E00239078002391E801938F8700BC
:101B100093880200138E1600E3FCEFC26FF0DFF42F
:101B200093824800E3FA62C0939F060193D30F01AA
:101B3000B3CFD301939F3F0093FF8F0793F37300BD
:101B400023A0070133E87F0023A0F500931F88003E
:101B500023A21701B3E30F011388070093070E00B8
:101B6000239078002391E801138E87009388020068
:101B700093861600E378EEBC6FF0DFF493824800A2
:101B8000E3F862B8939F060193D30F01B3CFD3015B
:101B9000939F3F0093FF8F0793F3730023A00701E8
:101BA00033E87F0023A0F500931F880023A21701CC
:101BB000B3E30F01239078002391E8011388070015
:101BC0009388020093070E006FF09FB423A0F500E6
:101BD00023A6150123A4050093C3F6FF138807006D
:101BE0009307F0FF2312F700231377009388020076
:101BF00093070E006FF05FA893824800E3FA62AE8D
:101C0000939F060193D30F01B3CFD301939F3F005E
:101C100093FF8F0793F3730023A0070133E87F003E
:101C200023A0F500931F880023A21701B3E30F013F
:101C3000239078002391E80113880700938802001D
:101C400093070E006FF0DFAA93824800E3FC62A8BE
:101C50009393060193D30301B3CFD301939F3F0026
:101C600093FF8F0793F3730023A0070133E87F00EE
:101C700023A0F500931F880023A21701B3E30F01EF
:101C8000239078002391E8011388070093880200CD
:101C900093070E006FF01FA5939F060193D30F01CA
:101CA000B3CFD301939F3F0093FF8F0793F373004C
:101CB00023A0070133E87F0023A0F500931F8800CD
:101CC00023A21701B3E30F01239078002391E801C9
:101CD000138807009388020093070E00938616006E
:101CE0006FF09FA2139E3E0023A0070113788E077A
:101CF00023A0F5009313880023A21701B3EF03017B
:101D00002390F8012391E8011388070093880200CB
:101D100093870600930610006FF05F9C032806006F
:101D20009308880063F6E80403A70600130347003E
:101D30006370F304232016018327050083920500B6
:101D4000039625002320F800232005012322E80024
:101D500083A306001385430023A0A6008325480023
:101D600013050800239055002391C50067800000EB
:101D70001308000013050800678000008327050092
:101D8000032645001307050083A5470083A6070027
:101D9000138507002322B70023A2C7002320D70002
:101DA00023A007006780000003A6450083264500A6
:101DB00003A705002322C50023A2D5002320E500A8
:101DC00023A0A50067800000039725006348070251
:101DD000630405020326450083162600639AE60085
:101DE0006F00000503284500831828006386E8007B
:101DF00003250500E31805FE67800000E30E05FEDD
:101E0000832745008392050003C30700631A53002C
:101E10006F0040028323450083C50300638855009B
:101E200003250500E31805FE6FF01FFD6780000025
:101E300067800000678000006300050A83270500B3
:101E40009308000023201501930605006386070808
:101E500003A7070023A0D700138507006300070826
:101E6000832207002320F70013050700638602067C
:101E700003A3020023A0E20013850200630E030403
:101E80008323030023205300130503006386030408
:101E900083A5030023A0630013850300638E05025E
:101EA00003A8050023A0750013850500630608023A
:101EB000032608002320B800130508009308080033
:101EC000630C060013050600832705002320150177
:101ED00093060500E39E07F6678000006780000018
:101EE000130101FD232C41012328610123267101E7
:101EF000232481012320A10123261102232481020E
:101F00002322910223202103232E3101232A510170
:101F100023229101130A0500938B0500130B060081
:101F2000130C1000130D100063000A1A930C00002C
:101F300093040000930A000093777C00938C1C00AC
:101F400013040A0013090000638607081307100032
:101F5000638AE7069300200063801706930230002F
:101F60006386570413034000638C67029303500099
:101F700063827702130560006388A70003240A00C8
:101F800013091000630A040A03240400130919004A
:101F90006304040A0324040013091900630E0408EF
:101FA000032404001309190063080408032404002F
:101FB000130919006302040803240400130919001B
:101FC000630C0406032404001309190063060406C5
:101FD00063042C0703240400130919009305090066
:101FE000630C0404032404001309190063060404A9
:101FF000032404001389250063000404032404005F
:1020000013893500630A0402032404001389450080
:10201000630404020324040013895500630E0400C2
:1020200003240400138965006308040003240400EA
:1020300013897500E31E04F893090C00630E09026E
:10204000638E0904630C04048325440003254A00BD
:1020500013060B00E7800B006352A0041306040074
:10206000032404009389F9FF6384040223A0C400BD
:1020700093040600E31609FC638A0902630C040258
:10208000130604009389F9FF03240400E39004FE7F
:10209000930A0600930406006FF0DFFD13060A00A2
:1020A0001309F9FF032A0A006FF01FFC130A04004A
:1020B000E31404E823A00400638CAC01131C1C008F
:1020C000138A0A006FF05FE62320000073001000FF
:1020D0008320C1020324810213850A008324410264
:1020E000032901028329C101032A8101832A4101B5
:1020F000032B0101832BC100032C8100832C4100A1
:10210000032D01001301010367800000130101FB8F
:102110002320310523287103B7F9FFFF931B070123
:10212000232681042324910423222105232E410305
:10213000232C5103232A61032326810323249103A3
:102140002322A1032320B1032324B1002326C100AD
:102150002322D100B369370193DB0B01631405001F
:102160006F20806593050600131A1500930606007C
:10217000130800009302EAFF13D312009303130025
:1021800013F47300B308BA006304040A9304100044
:102190006306940813092000630A2407930A300099
:1021A000630E5405130B400063026405130C5000CA
:1021B00063068403930C6000630A940103DD050049
:1021C00093852500B38DAB01239FB5FF03DE05008A
:1021D00093852500B38ECB01239FD5FF03DF050038
:1021E00093852500B38FEB01239FF5FF03D60500F0
:1021F00093852500B387CB00239FF5FE83D205008E
:102200009385250033835B00239F65FE83D3050000
:102210009385250033847B00239F85FE83D40500AE
:102220009385250033899B00239F25FF6386B8068D
:1022300083DA050003DB250003DC450083DC650051
:1022400003DD850083DDA50003D6C50083D7E50047
:10225000B3835B01B3826B01B38F8B01338F9B011F
:10226000B38EAB01338EBB013383CB003384FB00D1
:1022700023907500239155002392F5012393E501E6
:102280002394D5012395C5012396650023978500E6
:1022900093850501E39EB8F813081800938508009C
:1022A000E31A05ED032E810093152500930E00001F
:1022B0009308EAFF93D4180013891400937A7900E5
:1022C00093070E00330BDA0063820A0C130C100024
:1022D00063828A0B930C200063849A09130D3000EB
:1022E0006386AA07930D40006388BA051306500061
:1022F000638ACA0293036000638C7A0083920600AB
:1023000093074E0093862600B38FE2022320FE013E
:10231000039F060093874700938626003303EF024E
:1023200023AE67FE0394060093874700938626003A
:10233000B308E40223AE17FF839406009387470097
:10234000938626003389E40223AE27FF839A060092
:102350009387470093862600338CEA0223AE87FFDB
:10236000839C06009387470093862600338DEC02FA
:1023700023AEA7FF839D0600938747009386260020
:102380003386ED0223AEC7FE6308DB060393060027
:10239000839426000394460083936600839286000C
:1023A000839FA600039FC6008398E6003309E302DB
:1023B0009387070293860601B38AE40223A027FFCE
:1023C000330CE40223A257FFB38CE30223A487FF5C
:1023D000338DE20223A697FFB38DEF0223A8A7FF58
:1023E0003306EF0223AAB7FF3383E80223ACC7FE0C
:1023F00023AE67FEE31CDBF8938E1E00330EBE0097
:1024000093060B00E3960EEB03278100330A00418D
:10241000931E2A00B305B7009306000013070000BF
:10242000130F000013030000131E3A00338BD50175
:10243000B38765419384C7FF13D42400930314002A
:1024400013F9730093080B00938F060063140900BF
:102450006F1090119302100063045914930A200026
:1024600063085911130C3000630C890D930C400064
:102470006300990B130D50006304A907930D6000CE
:102480006308B903832F0B009318070113D60801C3
:10249000330FFF0163C4E9016F20402E130FA60024
:1024A00093170F0113D70741130F000093084B0038
:1024B00083A408001314070193530401330F9F00F2
:1024C00063C4E9016F204023938AA300139C0A018F
:1024D00013570C41130F000093884800938F04009A
:1024E00083AC0800131D0701935D0D01330F9F019D
:1024F00063C4E9016F20C01D1387AD00131F0701DE
:1025000013570F41130F000093884800938F0C005E
:1025100083A708009314070113D40401330FFF00AD
:1025200063C4E9016F2040139302A400939A02014F
:1025300013D70A41130F000093884800938F0700B8
:1025400003AC0800931C070113DD0C01330F8F014E
:1025500063C4E9016F20000A130AAD0013170A01D2
:1025600013570741130F000093884800930F0C0086
:1025700083A408009317070113D40701330F9F00AA
:1025800063C4E9016F20C005130FA40093120F016B
:1025900013D70241130F000093884800938F040063
:1025A00083A60800931A070113DC0A01330FDF002A
:1025B00063C4E9016F10507B1306AC00131A0601C7
:1025C00013570A41130F0000938848006384B80032
:1025D0006F10807913031300B305CB41E31868E44F
:1025E000137BF70F137C1B0037AD0000B30C804149
:1025F000930D1D0033FA9D0113561B00B344460191
:10260000131407019356040193F3140093D7860023
:1026100013562B0013571A00638C030037AFFFFFCC
:1026200013091F00B3422701139702011357070133
:10263000B34FE60093FA1F00935816009355170006
:10264000638C0A0037A8FFFF130E1800B3CEC50134
:1026500013930E019355030133CBB800137C1B0079
:10266000935C260013D41500630C0C0037ADFFFFFC
:10267000130A1D00B34D440193940D0113D40401BA
:10268000B3C68C0093F31600135F3600935A140000
:10269000638C030037A9FFFF9302190033C75A0068
:1026A000931F070193DA0F01B3485F0113F8180075
:1026B000135E460013DC1A00630C0800B7AEFFFF80
:1026C00013831E00B3456C00139B0501135C0B01C3
:1026D000B34C8E0113FD1C001356560093561C007C
:1026E000630C0D0037AAFFFF93041A00B3CD9600C8
:1026F00013940D019356040193F3160093DF160013
:10270000638CC30037AFFFFF13091F00B3C22F0153
:1027100013970201935F0701B3CAF70193F81A00F8
:1027200013D8170013DB1F00638C080037AEFFFFC0
:10273000930E1E003343DB019315030113DB0501E8
:10274000334C6801937C1C0013DD270013541B00DD
:10275000638C0C0037A6FFFF130A1600B344440134
:10276000939D040113D40D01B3468D0093F316001D
:1027700013DF3700935A1400638C030037A9FFFF5F
:102780009302190033C75A00931F070193DA0F0110
:10279000B3485F0113F8180013DE470013DC1A007A
:1027A000630C0800B7AEFFFF13831E00B3456C0037
:1027B000139B0501135C0B01B34C8E0113FD1C0030
:1027C00013D6570093531C00630C0D0037AAFFFF6C
:1027D00093041A00B3CD930013940D019353040195
:1027E000B346760013FF160013D9670093D8130081
:1027F000630C0F00B7A2FFFF13871200B3CFE800EE
:10280000939A0F0193D80A0133481901137E1800D7
:1028100093D7770013DC1800630C0E00B7AEFFFFF0
:1028200013831E00B3456C00139B0501135C0B0161
:10283000937C1C00935D1C00638CFC0037ADFFFF94
:1028400013061D0033CACD0093140A0193DD040161
:10285000631405006F101074032F8100032A4100D8
:10286000032BC100131D150093162500930A0F00BA
:10287000B38CE601330C4D0123283101B3094C41DF
:102880001389E9FF9352190013871200937F770091
:1028900013090A0093090B0093070000638E0F0CC5
:1028A00093081000638C1F0B13082000638C0F0922
:1028B000130E3000638CCF07930E4000638CDF054E
:1028C00013035000638C6F0293056000638CBF009C
:1028D00003160B0083170A0093092B0013092A0023
:1028E000B307F602839409000314090093892900B1
:1028F00013092900B3838402B3877700039F09007B
:10290000831609009389290013092900B302DF0205
:10291000B387570003970900831F09009389290093
:1029200013092900B308F703B387170103980900B7
:10293000031E09009389290013092900B30EC80357
:10294000B387D701039309008315090093892900F0
:10295000130929003306B302B387C7008394090023
:10296000031409001309290093892900B383840201
:10297000B387770063082C09039F090083160900B9
:1029800083122900839429003307DF02839E4900C4
:1029900003144900039369008313690003988900B5
:1029A000831F89008395A900031FA9000396C9000E
:1029B000B3845402031EC9008396E9008318E9001A
:1029C000B387E7001309090193890901B3828E02D5
:1029D000B38E97003304730233835E00B303F803AE
:1029E000330883003387E503B30F7800B305C603CC
:1029F000338FEF0033861603330EBF00B307CE00CC
:102A0000E31C2CF723A0FA00938A4A00330BAB0196
:102A1000E3965CE783290101330DA04013132D00D9
:102A2000130B000093060000130E000013080000B3
:102A300093183D00B30C5301338A9A41130CCAFF1B
:102A400013592C009304190093F7740093850C001C
:102A5000938E0600639407006F1040559302100098
:102A60006384571413042000638887109303300095
:102A7000638C770C930F40006380F70B130F5000AB
:102A80006384E707130660006388C70283AE0C0007
:102A900013170B0193550701330EDE0163C4C901FF
:102AA0006F10504C138EA500131A0E01135B0A41D0
:102AB000130E000093854C0003AC050013190B01A5
:102AC00093540901330E8E0163C4C9016F10504540
:102AD0001384A4009313040113DB0341130E0000BD
:102AE00093854500930E0C0083AF0500131F0B0167
:102AF00013560F01330EFE0163C4C9016F109039E4
:102B0000130DA600131E0D01135B0E41130E0000E2
:102B100093854500938E0F0003AA0500131C0B013B
:102B200013590C01330E4E0163C4C9016F101034E8
:102B30009302A90013940201135B0441130E0000D9
:102B400093854500930E0A0083A30500931F0B0194
:102B500013DF0F01330E7E0063C4C9016F10102C08
:102B6000130BAF00131D0B01135B0D41130E00007F
:102B700093854500938E030003AA0500131C0B01E7
:102B800013590C01330E4E0163C4C9016F10102498
:102B9000130EA90093120E0113DB0241130E000065
:102BA00093854500930E0A0083A6050013140B01BC
:102BB00093530401330EDE0063C4C9016F109019F2
:102BC0001387A300131B0701135B0B41130E0000B7
:102BD00093854500638455016F10403D130818002C
:102BE000B38A1C41E31805E5931C0B0193DF0C012C
:102BF0009373FB0F13D48F0033CFB30113761F00F1
:102C000013DD130013D91D00630C060037A7FFFF67
:102C1000130A1700B3464901139C060113590C010E
:102C2000334E2D0193741E0093D2230013531900C9
:102C3000638C040037ABFFFF930E1B00B347D30137
:102C40009395070113D30501B3C8620093FD1800E3
:102C500013D83300135D1300638C0D00B7AAFFFF78
:102C6000938C1A00B34F9D01139F0F01135D0F0149
:102C70003346A8011377160013DA430093541D005E
:102C8000630C0700B7A6FFFF138C160033C984013D
:102C9000131E090193540E01B3429A0013FB120054
:102CA00093DE530093DD1400630C0B00B7A5FFFF08
:102CB00013831500B3C76D009398070193DD0801D6
:102CC00033C8BE01937A180093DC630013D71D004C
:102CD000638C0A00B7AFFFFF138F1F00334DE7016E
:102CE00013160D011357060133CAEC00137C1A00AA
:102CF00093D3730093521700630C0C00B7A6FFFF29
:102D00001389160033CE220193140E0193D20401CD
:102D100013FB120093D81200630C7B00B7AEFFFFC9
:102D200093851E0033C3B8009317030193D807019E
:102D3000B34D140113F81D00935A140013D7180053
:102D4000630C0800B7ACFFFF938F1C00334FF701F3
:102D5000131D0F0113570D0133C6EA00137A160035
:102D6000135C240093541700630C0A00B7A3FFFF01
:102D70009386130033C9D400131E090193540E0126
:102D8000B3429C0013FB1200935E340093DD1400E9
:102D9000630C0B00B7A5FFFF13831500B3C76D00CD
:102DA0009398070193DD080133C8BE01937A180098
:102DB000935C440013DA1D00638C0A00B7AFFFFF79
:102DC000138F1F00334DEA0113170D01135A07012A
:102DD00033C64C01137C16009353540093521A00CF
:102DE000630C0C00B7A6FFFF1389160033CE220137
:102DF00093140E0193D2040133CB5300937E1B0036
:102E00009355640013D81200638C0E0037A3FFFFA4
:102E100093081300B3471801939D070113D80D01C0
:102E2000B3CA050193FC1A0013547400135A180016
:102E3000638C0C00B7AFFFFF138F1F00334DEA0107
:102E400013170D01135A070113561A00137C1A00A9
:102E50002328C100630E8C00B7A3FFFF93861300E5
:102E60003349D600131E090193540E012328910003
:102E7000631405006F10D012832EC100032341009C
:102E8000832A81001319150093152500232E710143
:102E9000138C0E00338B2E01232AB100B30C690072
:102EA000130D0000232C3101938B05008329410071
:102EB000138A0A00B3088B419387E8FF93DD17005C
:102EC00013881D0013747800138F0900930E0C00F3
:102ED00093070000630E040C930F1000630CF40BB7
:102EE00013072000630CE40813063000630CC406CB
:102EF00093034000630C740493065000630CD402E7
:102F0000130E6000630CC40183140C00839209004B
:102F1000930E2C00338F2901B387540283950E0042
:102F200003130F00938E2E00330F2F01B388650219
:102F3000B3871701839D0E0003180F00938E2E0098
:102F4000330F2F0133840D03B3878700839F0E0057
:102F500003170F00938E2E00330F2F013386EF02DD
:102F6000B387C70083930E0083160F00938E2E0045
:102F7000330F2F01338ED302B387C70183940E0022
:102F800083120F00938E2E00330F2F01B38554024E
:102F9000B387B70003930E0083180F00938E2E00A3
:102FA000330F2F01B30D1303B387B7016306DB0B98
:102FB00033082F0103940E00831F0F00039E2E0081
:102FC000831408003307280133062701831D0700F7
:102FD0003307F40383924E00B30326010314060063
:102FE00003936E00B388230103988E00839303003C
:102FF000B38628018395AE00B3049E02839F080028
:103000000396CE00338F2601039E060083180F001F
:103010008396EE00B387E700938E0E01330F2F01E6
:10302000B382B203B38D97003303830233875D000D
:103030003304780233086700B383F503B3058800CF
:10304000B30FC60333867500B3841603330EF6013F
:10305000B3079E00E31EDBF52320FA0093892900C5
:10306000130A4A00E39899E5130D1D00330C2C0157
:10307000330B2B01B38A7A01E31AA5E3832E4101B6
:10308000832C810083298101832BC1013309A04056
:10309000B385DC01131E290013070000130F000085
:1030A000930E00009308000013133900B386C50186
:1030B000B387D5409382C7FF93DD220013841D00A0
:1030C0009373740013860600930F0F00639403003C
:1030D0006F10C011130810006384031593042000BF
:1030E00063889310130A3000638C430D130C400067
:1030F0006380830B130B500063846307930A6000A3
:103100006388530383AF06001317070113560701A3
:10311000B38EFE0163C4D9016F104063930EA60005
:1031200093970E0113D70741930E000013864600B4
:1031300083220600931D070113D40D01B38E5E0098
:1031400063C4D9016F10005A9304A400139A0401B8
:1031500013570A41930E000013064600938F020096
:10316000032C0600131B0701935A0B01B38E8E012B
:1031700063C4D9016F108054938CAA00939E0C01F4
:1031800013D70E41930E000013064600930F0C0058
:10319000832706009312070193DD0201B38EFE0020
:1031A00063C4D9016F10C04D1388AD00931408019A
:1031B00013D70441930E000013064600938F0700B7
:1031C000032A0600131C0701135B0C01B38E4E018A
:1031D00063C4D9016F1040431309AB00931C09016C
:1031E00013D70C41930E000013064600930F0A00FC
:1031F000832206009317070193DD0701B38E5E005B
:1032000063C4D9016F10003A938EAD0013980E017C
:1032100013570841930E000013064600938F0200D7
:10322000032F06009314070113DA0401B38EEE0195
:1032300063C4D9016F10C0351307AA001319070121
:1032400013570941930E000013064600E310B67AA7
:1032500093881800B3856640E31A1DE593160701AD
:1032600013DA0601137BF70F93528A00032C010136
:10327000935C1B00B34A6C0113F91A0013541C0031
:10328000630C090037AFFFFF930D1F00B347B40174
:10329000939E070113D40E01B3C38C0093FF130058
:1032A00013572B00135D1400638C0F0037A8FFFF2A
:1032B0009304180033469D0013130601135D0301A8
:1032C000334EA70193781E0093553B0013591D0000
:1032D000638C0800B7A6FFFF138A1600334C490120
:1032E000931A0C0113D90A01B34CB90013FF1C0047
:1032F000935D4B00935F1900630C0F00B7A7FFFFAE
:1033000013841700B3CE8F0093930E0193DF030154
:1033100033C7FD011378170093545B0093D81F0047
:10332000630C080037A6FFFF1303160033CD6800B7
:10333000131E0D0193580E01B3C5140113FA1500A5
:1033400093566B0013DF1800630C0A0037ACFFFFC5
:10335000930A1C0033495F01931C090113DF0C0120
:10336000B3CDE60193F71D00135B7B0013571F00DD
:10337000638C070037A4FFFF93031400B34E77005C
:10338000939F0E0113D70F0113781700135E1700D8
:10339000630C6801B7A4FFFF138614003343CE000B
:1033A000131D0301135E0D01B3485E0093F5180071
:1033B00013DA1200935C1E00638C0500B7A6FFFFB2
:1033C000138C1600B3CA8C0113990A01935C09018E
:1033D00033CF4C01937D1F0093D7220093DF1C0055
:1033E000638C0D0037ABFFFF13041B00B3C38F00CA
:1033F000939E030193DF0E0133C7F7011378170083
:1034000093D4320093D81F00630C080037A6FFFF47
:103410001303160033CD6800131E0D0193580E01DF
:10342000B3C5980013FA150013DC420013DF18002F
:10343000630C0A00B7A6FFFF938A160033495F01A9
:10344000931C090113DF0C01B34DEC0193F71D0030
:1034500013DB520013581F00638C070037A4FFFFD3
:1034600093031400B34E7800939F0E0113D80F01FD
:1034700033470B019374170013D66200935518005D
:10348000638C040037A3FFFF130D130033CEA50197
:1034900093180E0193D50801334AB600137C1A0025
:1034A00093D2720013DF1500630C0C00B7A6FFFF68
:1034B000938A160033495F01931C090113DF0C0145
:1034C000937D1F00935E1F00638C5D00B7A7FFFF15
:1034D000138B170033C46E019313040193DE0301B1
:1034E000631405006F10802C0328C100832D410058
:1034F000032981001313150093020800B30F030181
:10350000131D250033846D009304000013860D0005
:103510009305090033875F40130EE7FF93581E00A1
:10352000138A1800137C3A00130E060093880200D9
:10353000130F0000630C0C08930610006300DC06F8
:10354000930A200063065C03031F0600839C0200AD
:1035500093882200330E6600338BEC0393572B4085
:1035600093535B4013F8F70013F7F307330FE802A8
:10357000039A0800031C0E0093882800330E6E0087
:10358000B3068A0393DA264093DC564013FBFA0015
:1035900093F7FC07B303FB02330F7F000398080087
:1035A00003170E0093882800330E6E00330AE802DA
:1035B000135C2A4093565A40937AFC0093FCF6071A
:1035C000338B9A03330F6F016386F80BB3036E00DE
:1035D0000398080083160E00B38763000397280042
:1035E000039C0300039B4800338E6700039A070087
:1035F000B303D802831A0E00839C68009388880066
:10360000330E6E003308870393D6534013D72340FD
:10361000137CF70093F7F607330A4B039353584094
:10362000135B284013F7F3071378FB00B38C5C039C
:1036300093565A40935A2A4013FBFA0013FAF6079E
:10364000B307FC0293D35C4013DC2C40937CFC005A
:1036500093FAF3073308E802330FFF0033074B03F5
:10366000330B0F01B3865C03330AEB00330FDA0030
:10367000E39EF8F523A0E501130626009385450097
:10368000E31A86E893841400B3826200B38F680063
:103690003309A901E31C95E603238100B30DA04083
:1036A00093070000B303A301130F000013932D0031
:1036B000130E00001308000093983D00330D7300B3
:1036C0003384A341130CC4FF935C2C00938A1C0029
:1036D00013F77A0093060D00930F0F00E3080754C9
:1036E000130B1000630A6713130A200063004711CD
:1036F000130630006306C70C93054000630CB7083F
:103700009302500063025706130960006308270301
:10371000832F0D009397070193D60701330EFE0107
:1037200063C4C9016F100001138EA600131C0E01A3
:1037300093570C41130E000093064D0083AC060016
:10374000939A070113D70A01330E9E01E3D0C97D76
:103750001306A7009315060193D70541130E000029
:1037600093864600938F0C0083A2060013990701ED
:1037700093570901330E5E00E3D8C973138EA70077
:10378000131C0E0193570C41130E00009386460044
:10379000938F020083AC0600939A070113D70A01A6
:1037A000330E9E01E3D0C96B1306A70093150601E3
:1037B00093D70541130E000093864600938F0C00AB
:1037C00083A206001399070193570901330E5E0087
:1037D000E3D0C967138EA700131C0E0193570C4149
:1037E000130E000093864600938F020083AC060000
:1037F000939A070113D70A01330E9E01E3DEC95BDA
:103800001306A7009315060193D70541130E000078
:1038100093864600938F0C0003AF06009392070136
:1038200013D90201330EEE01E3DAC955130EA900D4
:10383000131C0E0193570C41130E00009386460093
:10384000E396763E13081800B3031D41E39804E79E
:10385000139D0701135C0D0193FFF70F93598C0023
:10386000B3CCFE0193FA1C0013D71F0013DE1E0019
:10387000638C0A0037ABFFFF130A1B00334F4E0166
:1038800093150F0113DE05013346EE009372160007
:1038900013D92F0013531E00638C0200B7ADFFFF36
:1038A00013841D00B34783009396070113D30601C9
:1038B000B344690093F8140093DE3F00935C130057
:1038C000638C080037A8FFFF9303180033CD7C00FA
:1038D000131C0D01935C0C01B3CADC0113F71A0031
:1038E00013DB4F0093D21C00630C070037AAFFFFC5
:1038F000130F1A00B3C5E201139E050193520E0186
:1039000033465B001379160093DD5F0093D41200F9
:10391000630C090037A4FFFF93061400B3C7D4005B
:103920001393070193540301B3C8B40193FE180025
:1039300013D86F0093DA1400638C0E00B7A3FFFF57
:10394000138D130033CCAA01931C0C0193DA0C01E4
:1039500033C70A01137B170093DF7F0093D21A004D
:10396000630C0B0037AAFFFF130F1A00B3C5E20167
:10397000139E050193520E0113F6120093D7120005
:10398000630CF60137A9FFFF930D190033C4B7018B
:103990009316040193D7060133C3F90093741300FF
:1039A00093D8190013DC1700638C0400B7AEFFFF37
:1039B00013881E00B3430C01139D0301135C0D011A
:1039C000B3CC880193FA1C0013D7290093551C002F
:1039D000638C0A0037ABFFFF930F1B0033CAF5015E
:1039E000131F0A0193550F01334EB70093721E0047
:1039F00013D6390093D71500638C020037A9FFFF57
:103A0000930D190033C4B7019316040193D706012F
:103A10003343F6009374130093D8490013DC170066
:103A2000638C0400B7AEFFFF13881E00B3430C0184
:103A3000139D0301135C0D01B34C1C0193FA1C0090
:103A400013D7590093551C00638C0A0037ABFFFF56
:103A5000930F1B0033CAF501131F0A0193550F0181
:103A6000334EB70093721E0013D9690093D7150027
:103A7000638C020037A6FFFF930D160033C4B70115
:103A80009316040193D7060133C3270193741300DF
:103A900093D9790013DD1700638C0400B7A8FFFFEA
:103AA000938E18003348DD019313080113DD0301E1
:103AB000137C1D00135A1D00630C3C01B7ACFFFFC3
:103AC000938A1C0033475A01131B0701135A0B0139
:103AD000630E05120326C10013191500930600009A
:103AE000930FE9FF13DF1F0093051F0013FE7500FE
:103AF000B30D260163040E0A9302100063065E08EC
:103B000013042000630A8E0693073000630EFE0440
:103B10001303400063026E049304500063069E0288
:103B200093096000630A3E018358060013062600CD
:103B3000B38E7841231FD6FF0358060013062600D4
:103B4000B3037841231F76FE035D060013062600AB
:103B5000330C7D41231F86FF835C0600130626007D
:103B6000B38A7C41231F56FF035706001306260025
:103B7000330B7741231F66FF835F06001306260081
:103B8000338F7F41231FE6FF83550600130626006F
:103B9000338E7541231FC6FF6306B60783520600A6
:103BA000035426008357460083546600035386005F
:103BB0008359A600835EC6008353E600338D7241AD
:103BC000330C7441B38C7741B38A7441330B734126
:103BD000B388794133887E41338773412310A6012E
:103BE0002311860123129601231356012314660123
:103BF00023151601231606012317E60013060601F6
:103C0000E31EB6F993861600E31CD5EC0324C10429
:103C100013150A0183248104032941048329010423
:103C2000032AC103832A8103032B4103832B01034E
:103C3000032CC102832C8102032D4102832D01023A
:103C4000135505411301010567800000B3A69600D6
:103C500083AA4800B307D4009393070193D203418A
:103C6000139C0201338D5F0193884800935C0C0123
:103C700063DAA9131387AC0083A348001314070168
:103C800093540441130D00009396040133097D0001
:103C900093D7060163DA2913138CA70003AD8800BC
:103CA000931C0C0193DA0C4113090000939D0A0147
:103CB000330AA90113D60D0163DA49139306A6004E
:103CC00003A9C8009397060193D30741130A000084
:103CD000139F0301B30F2A0193520F0163DAF91303
:103CE000938DA20003AA080113960D01135D0641EE
:103CF000930F000093140D0133874F0113D4040177
:103D000063DAE912130FA40083AF480193120F0185
:103D100013D9024113070000931A0901B30CF701EC
:103D200013DC0A0163DA99139304AC0083A68801BB
:103D300013940401135A0441930C000013170A0151
:103D4000338FDC009353070163DAE913938FA300E9
:103D5000939A0F0113D70A41130F00009388C801EB
:103D60006394B8006FE01F8783A40800131707014E
:103D700013540701B30F9F00E3DAF9ED83AA48005B
:103D80001309A400131F090193520F41930F000060
:103D9000139C0201338D5F0193884800935C0C01F2
:103DA000E3CAA9EDB3AD54013386BC0183A3480037
:103DB000131A060193540A419396040133097D00B6
:103DC00093D70601E3CA29ED33AF7A00B382E70146
:103DD00003AD8800939F020193DA0F41939D0A017E
:103DE000330AA90113D60D01E3CA49EDB3A4A30117
:103DF0003307960003A9C800131407019353044125
:103E0000139F0301B30F2A0193520F01E3CAF9ED87
:103E1000B32A2D01338C520103AA0801931C0C0113
:103E200013DD0C4193140D0133874F0113D40401AA
:103E3000E3CAE9ECB3234901B306740083AF480138
:103E40009397060113D90741931A0901B30CF7019F
:103E500013DC0A01E3CA99ED332DFA01B30DAC016D
:103E600083A6880113960D01135A064113170A0100
:103E7000338FDC0093530701E3CAE9EDB3A7DF00FA
:103E80003389F3009312090113D702416FF01FED3C
:103E9000B3A6A60103A445003309DC00931409016D
:103EA00093D2044193930201338F8E009385450092
:103EB00093DF030163DAE913138AAF0003A9450016
:103EC000131C0A01135D0C41130F000093160D0122
:103ED000330E2F0193D4060163DAC9139383A40030
:103EE00003AF8500939F030113D40F41130E00000D
:103EF000131604013307EE01135B060163DAE912BE
:103F00009306AB0003AEC5009394060113D9044198
:103F10001307000093170901B30EC70193D20701DD
:103F200063DAD9131386A20003AD0501131B060142
:103F3000135F0B41930E000013170F01338CAE017A
:103F4000135A070163DA89139307AA0083AE450168
:103F50009392070113DE0241130C000013140E01AB
:103F6000B30FDC019353040163DAF9131387A30041
:103F700083A68501131A0701135D0A41930F000000
:103F8000131C0D01338EDF0013590C0163DAC913C2
:103F9000930EA90013940E01135B0441130E00004D
:103FA0009385C501639455016FE05FC303AD0500C0
:103FB000131A0B01135C0A01B30EAE01E3DAD9ED5B
:103FC00003A445009307AC00139E070193520E41D2
:103FD000930E000093930201338F8E00938545006A
:103FE00093DF0301E3CAE9ED33268D003387CF0069
:103FF00003A94500131B0701135D0B4193160D0127
:10400000330E2F0193D40601E3CAC9EDB32724016F
:10401000B382F40003AF8500939E020113D40E41D6
:10402000131604013307EE01135B0601E3CAE9EC42
:10403000332DE901330AAB0103AEC500131C0A019D
:1040400013590C4193170901B30EC70193D207010D
:10405000E3CAD9ED3324CF01B383820003AD050158
:10406000939F030113DF0F4113170F01338CAE0130
:10407000135A0701E3CA89ED3329AE01B3062A01B9
:1040800083AE45019394060113DE044113140E011F
:10409000B30FDC0193530401E3CAF9ED332FDD01C3
:1040A0003386E30183A68501131B0601135D0B41D3
:1040B000131C0D01338EDF0013590C01E3CAC9ED47
:1040C000B3A4DE00B30799009392070113DB02410A
:1040D0006FF01FED332F9F0183244600B387ED015E
:1040E00013940701935F0441139A0F01330B980057
:1040F00013064600135C0A0163D869139302AC00EF
:10410000032F4600939D020193DC0D41130B000029
:1041100093970C01B303EB0113D4070163D8791211
:10412000130AA400032B8600131C0A0193540C41AC
:1041300093030000939A04013387630113D90A01A2
:1041400063D8E9129307A9008323C60013940701DB
:10415000135F044113070000931E0F01330877001B
:1041600093DF0E0163D80913938AAF00832C0601F5
:1041700013990A01135B09411308000013170B017F
:10418000B30D98019352070163D8B913938EA2001F
:1041900003284601939F0E0193D30F41930D000016
:1041A00093940301338C0D0113DA040163D889134E
:1041B0001307AA00032F86019312070193DC024123
:1041C000130C0000939D0C01B30EEC0193D70D016D
:1041D00063D8D9131388A7009314080113D7044197
:1041E000930E00001306C6016304B686832C0600F6
:1041F0009312070193DD020133889E01E3DC09ED90
:10420000832446009383AD00939E030193DF0E4108
:1042100013080000139A0F01330B98001306460091
:10422000135C0A01E3CC69EDB3AA9C0033075C017F
:10423000032F460013190701935C094193970C0162
:10424000B303EB0113D40701E3CC79ECB3AEE40183
:10425000B30FD401032B860013980F019354084128
:10426000939A04013387630113D90A01E3CCE9EC83
:10427000B32C6F01B30299018323C600939D020101
:1042800013DF0D41931E0F013308770093DF0E01FA
:10429000E3CC09EDB3247B00338A9F00832C060115
:1042A000131C0A01135B0C4113170B01B30D98018A
:1042B00093520701E3CCB9ED33AF9301B387E20129
:1042C0000328460113940701935304419394030177
:1042D000338C0D0113DA0401E3CC89ED33AB0C010F
:1042E000B30A6A01032F860113990A01935C0941FD
:1042F000939D0C01B30EEC0193D70D01E3CCD9EDE6
:104300003324E801B3838700939F030113D70F4140
:104310006FF05FED332F9F0103A94600330BE701D8
:10432000131A0B01935F0A4193970F013384220103
:104330009386460093DD070163D889121387AD0089
:1043400003AB4600131F0701935A0F4113040000EB
:10435000139A0A013306640193550A0163D8C912FE
:10436000938DA50003AE860013940D01935704416D
:1043700013060000139C0701B30AC601935C0C01ED
:1043800063D859139385AC0083AFC600139605011B
:10439000135A0641930A000093120A01B38DFA01E1
:1043A00013D9020163D8B913930CA90003A706011E
:1043B000939A0C0113DC0A41930D0000131F0C01AA
:1043C000338AED00135B0F0163D849131309AB0067
:1043D00003A44601931D090193D20D41130A000065
:1043E00093970201B30C8A0013DC070163D8991379
:1043F000130FAC00131A0F0103AF8601135B0A41C0
:10440000930C000093150B01338EEC0113D60501BC
:1044100063D8C913930DA60013940D01935704415B
:10442000130E00009386C601638E76C083AC06002F
:10443000939A070113D70A01B3029E01E3DC59ECFA
:1044400003A946001306A7009315060193DF054153
:104450009302000093970F01338422019386460054
:1044600093DD0701E3CC89EC33AE2C01338CCD0115
:1044700003AB4600931C0C0193DA0C41139A0A011A
:104480003306640193550A01E3CCC9ECB32F6901EB
:10449000B382F50103AE86001399020193570941D7
:1044A000139C0701B30AC601935C0C01E3CC59EDE0
:1044B0003327CB01338FEC0083AFC600131B0F01F2
:1044C000135A0B4193120A01B38DFA0113D9020159
:1044D000E3CCB9EDB327FE013304F90003A70601CD
:1044E000131E0401135C0E41131F0C01338AED00EF
:1044F000135B0F01E3CC49EDB3A5EF003306BB001E
:1045000003A44601931F060193D20F419397020122
:10451000B30C8A0013DC0701E3CC99ED332E87003E
:10452000B30ACC0103AF860113970A01135B07415D
:1045300093150B01338EEC0113D60501E3CCC9EDC5
:10454000B32FE401B302F601139902019357094115
:104550006FF05FEDB3AFDE00338FF30113160F0181
:10456000135B06416FE0CFE6B3ACDF00330D9C0177
:10457000931D0D0113D70D416FE00F85B3A7EF0118
:10458000B30DF90013940D01935704416FF00FAB75
:1045900033ACEF01330B8A01931A0B0113D70A4195
:1045A0006FE09FCA33A45F00B38F8D0093930F0118
:1045B00013D703416FE05FC6B3AF9F01330BF70121
:1045C000131A0B0193570A416FF08FA4B3A44E0145
:1045D000B30E990093970E0113DB07416FE04FDC98
:1045E000B3A39F00B30F740013990F011357094130
:1045F0006FD09FFAB3AD8F013306BD01931606014C
:1046000013D706416FD05FF6B3AA4F0133075B01A2
:10461000131F070113570F416FE01FBD33A67E0024
:104620003307CF009316070113DB06416FE04FD429
:1046300033AF5F00B38DE70113940D01935704412D
:104640006FF04F9AB3AF9F01330BF701131A0B01B1
:1046500093570A416FF04F96B3A3FF00B30F740056
:1046600013990F01135709416FD01FEDB3A44E01E9
:10467000B30E990093970E0113DB07416FE04FCC07
:1046800033A4FF00B38F8D0093930F0113D7034121
:104690006FE09FB233A7FE01B306E600139B06014D
:1046A000135B0B416FE0CFC633AF5F00B38DE70103
:1046B00013940D01935704416FF04F8D33A78F0171
:1046C000338FEA0013190F01135709416FE0DFAB75
:1046D00033A69F01B386CD00139A060113570A41F2
:1046E0006FD09FE2B3AF5F00B303F40113980301EF
:1046F000135708416FE05FA6B3AF9F003389F30102
:104700009312090113D702416FD01FDDB3AF9F0190
:10471000330BF701131A0B0193570A416FF04F84C3
:10472000B3AE8E01B387D4019392070113DB02412C
:104730006FE00FBB332FFF01B38DE60113940D0122
:104740009357044193064D006FE05FFF332FFF0145
:104750003309E601931C090113D70C411386460067
:104760006FE01F9DB3A6D601338BD500131D0B013F
:10477000135B0D4193854C006FE00FB4B3A6F601B7
:10478000330AD60013170A011357074193084B0049
:104790006FD01FD213040000930300006FE0CFC559
:1047A00093020000130B00006FE05FAC9309000060
:1047B000930F00006FF0CF8A1306000093070000EC
:1047C000130700006FD0DFE6130101FF1387050018
:1047D00083268500232481008325C5001304060059
:1047E000032645000325050023261100EFD01F9264
:1047F000B346A4001377F50F9317050193F2160043
:1048000013D307011356170013581400638C0200CA
:10481000B7A0FFFF9383100033457800931505017F
:1048200013D80501B348C80013FE1800935E270093
:1048300093521800630C0E0037AFFFFF930F1F0059
:1048400033C4F2019316040193D20601B3C7D20117
:1048500093F017001356370093D81200638C0000B2
:10486000B7A3FFFF9385130033C5B80013180501E4
:104870009358080133CEC800937E1E00135F470093
:1048800093D71800638C0E00B7AFFFFF13841F008F
:10489000B3C687009392060193D70201B3C0E70124
:1048A00093F310001356570013DE1700638C0300B8
:1048B000B7A5FFFF1388150033450E0193180501B6
:1048C00013DE0801B34ECE0013FF1E00935F670096
:1048D00093501E00630C0F0037A4FFFF93061400D3
:1048E000B3C2D0009397020193D00701B3C3F00184
:1048F00013F613001357770013DE1000630C060045
:10490000B7A5FFFF1388150033450E019318050165
:1049100013DE0801937E1E0093521E00638CEE008E
:1049200037AFFFFF930F1F0033C4F201931604014A
:1049300093D2060113538300B3C062009377F30F41
:1049400093F3100013D6170093D81200638C030062
:1049500037A7FFFF9305170033C8B80013150801E8
:1049600093580501334E1601937E1E0013DF270076
:1049700013D31800638C0E00B7AFFFFF13841F0022
:10498000B34683009392060113D30201B340E301BF
:1049900093F3100013D6370093581300638C030071
:1049A00037A7FFFF9305170033C8B8001315080198
:1049B0009358050133CEC800937E1E0013DF4700D5
:1049C00013D31800638C0E00B7AFFFFF13841F00D2
:1049D000B34683009392060113D30201B340E3016F
:1049E00093F3100013D6570093581300638C030001
:1049F00037A7FFFF9305170033C8B8001315080148
:104A00009358050133CEC800937E1E0013DF670064
:104A100013D31800638C0E00B7AFFFFF13841F0081
:104A2000B34683009392060113D30201B340E3011E
:104A300093F3100093D7770013551300638C030092
:104A400037A6FFFF13071600B345E50013980501CD
:104A5000135508019378150013551500638CF80061
:104A600037AEFFFF930E1E00334FD501931F0F018A
:104A700013D50F018320C10003248100130101011C
:104A800067800000130101FD232681022324910287
:104A90002322210323203103232E4101232C510102
:104AA000232A6101232871012326810123249101F6
:104AB0001307050063140600130610009382F5FF28
:104AC00013F3C2FF13094300130500006302073C00
:104AD00093071500B385F7029388370013844700C6
:104AE000138E57009394350063F2E40A138817007D
:104AF000330A080313850700938E6700931A3A0060
:104B000063F6EA08130B1800330C6B031305080057
:104B1000938B7700931C3C0063FAEC06338F1803E9
:104B20001385270013133F006372E306B302840268
:104B3000138508009399320063FAE904B303CE03A6
:104B4000130504009397330063F2E704B388DE0390
:104B500013050E0013943800637AE402338E7B034E
:104B600013850E0093153E0063F2E50213850B00DA
:104B700093071500B385F702938837001384470025
:104B8000138E570093943500E3E2E4F63307A50251
:104B90009309050093131700B30279006302052AF5
:104BA00037080100930F000093081000330F59409D
:104BB00093141500930EF8FF33061603139A080199
:104BC000935A0A0113CBF8FFB30B1B01338CAB00D4
:104BD0009385180013743C00B38C15413383F403A0
:104BE0009357F64113DE07013307C6013378D70127
:104BF0003306C841338ACA00131B0A01935B0B01B9
:104C0000B38A7A013383620013FCFA0F2310730115
:104C1000B3076F00239087011308230063FAAC20C9
:104C2000630A040E930C1000630E9409130E200007
:104C30006306C4053306B6029395050113D4050136
:104C4000330A0F0113084300938528001357F641D8
:104C5000135B0701B30B6601B3FADB0133866A41CC
:104C6000330CC40093170C0193DC0701330E94013D
:104C7000231193011373FE0F23106A003306B6024B
:104C800013940501135A0401330B0F01938515008A
:104C9000130828001357F641935B0701B30A760106
:104CA00033FCDA0133067C41B307CA00939C070149
:104CB00013DE0C013303CA01231FC8FF1374F30F63
:104CC00023108B003306B602139A0501135B0A0109
:104CD000B30B0F011308280093851500B38A154103
:104CE0001357F641135C0701B3078601B3FCD701E4
:104CF00033868C41330ECB0013130E011354030182
:104D0000330A8B00231F88FE137BFA0F23906B015D
:104D100063F0AA123306B602938C1500139C0C01A3
:104D2000135B0C01939B050113DA0B01B3070F0111
:104D3000938B070013872500131E07011354F641B8
:104D4000135C0401330686013374D601330C8441AD
:104D5000B30C9C0333068A0113140601135C04018F
:104D6000330A8A01231088011376FA0F2390C700B3
:104D7000138A07001384070093D7FC4113DC070153
:104D8000B38C8C0133F6DC01B30786413387E7022D
:104D9000330CFB00931C0C0113D60C012311C8002B
:104DA000330BCB00938A35009377FB0F13930A01E3
:104DB000135E0E01135CF741935C0C0133079701FE
:104DC0003376D701330B9641B30A5B032391FB0083
:104DD000B3076E01139C0701935C0C01330E9E0117
:104DE00013088800231E98FF1377FE0F2312EA0092
:104DF00013DAFA4113560A01338BCA00B37ADB0186
:104E0000135303013386CA40B307C300139C070141
:104E1000935C0C013303930193854500231F98FF96
:104E2000137EF30FB38B15412313C401E3E4ABEE00
:104E3000938F1F0063F6AF00938805006FF0DFD7F4
:104E4000B38372009388F3FF0324C10293F5C8FF74
:104E50001388450023A2260123A0360123A456006F
:104E600023A606018324810203294102832901022A
:104E7000032AC101832A8101032B4101832B0101F4
:104E8000032CC100832C8100130101036780000003
:104E9000930263009309F0FF1305F0FF93032000D2
:104EA0006FF01FD0630805483308A0409317250012
:104EB000B385F500931828009306000093070000BF
:104EC000130F0000130E0000131838003387B800CA
:104ED000B38EE5409382CEFF13D3220093031300D9
:104EE00093FE730013030700638C0E28930F1000CA
:104EF000638AFE139302200063805E1093033000E8
:104F000063867E0C930F4000638CFE099302500071
:104F100063825E069303600063887E02832E07002F
:104F20009397070113D30701330EDE01634AC63F8F
:104F3000332FDF01B30FE30193920F0193D70241A7
:104F400013034700138F0E00832E0300939707016E
:104F500093DF0701330EDE01635AC63B138EAF00A9
:104F600093170E0193D70741130E0000130343005C
:104F7000138F0E00832E0300939F070193D20F011E
:104F8000330EDE01635AC637138EA200931F0E0143
:104F900093D70F41130E000013034300138F0E002D
:104FA00083220300939E070193D30E01330E5E000C
:104FB000635AC633138EA300931E0E0193D70E417E
:104FC000130E000013034300138F0200832203001B
:104FD0009393070193D70301330E5E00635AC62FE4
:104FE000138EA70093130E0193D70341130E0000F5
:104FF00013034300138F02008322030093970701DA
:1050000093DF0701330E5E00635AC62B138EAF0089
:1050100093170E0193D70741130E000013034300AB
:10502000138F020083220300939F070193DE0F0179
:10503000330E5E00635AC627138EAE00931F0E0117
:1050400093D70F41130E000013034300138F020088
:105050006398651293861600B3050741E318D5E6F9
:105060001385070067800000332F5F00B387E301DB
:10507000032F4300939F070193D30F41939703019D
:10508000B303EE011303430093DF07016358761265
:10509000938FAF008322430093930F0193D7034173
:1050A00093030000939E0701338E530093D70E01A4
:1050B0006358C6139387A700032F8300139E07012D
:1050C000935E0E41130E0000939F0E01330EEE010E
:1050D00093D30F016358C6139383A3008322C300A5
:1050E000139E0301935F0E41130E0000939E0F0168
:1050F000B30F5E0093D70E016358F6139387A70092
:10510000032F0301939F070193DE0F41930F0000CC
:1051100093930E01338EEF0193D703016358C613A7
:105120009387A70083224301139E070193530E41E7
:10513000130E0000939E0301B3035E0093DF0E0184
:1051400063587612938FAF00032F830193930F015F
:1051500093DE03419303000093970E01338EE30126
:1051600093DF07016358C613938FAF00139E0F019F
:1051700093570E41130E00001303C301E38C65EC3B
:1051800083220300939E070193D30E01330E5E002A
:10519000E35CC6ED138EA300032F4300931E0E01A4
:1051A00093D30E41130E000093970301B303EE0156
:1051B0001303430093DF0701E34C76ECB3A2E20153
:1051C000B38E5F0083224300139E0E0193570E415E
:1051D000939E0701338E530093D70E01E34CC6ED27
:1051E000332F5F00B38FE701032F830093930F01E9
:1051F00093DE0341939F0E01330EEE0193D30F0113
:10520000E34CC6EDB3A2E201B38E53008322C30088
:1052100093970E0193DF0741939E0F01B30F5E003A
:1052200093D70E01E34CF6ED332F5F00B383E70114
:10523000032F0301139E0301935E0E4193930E010E
:10524000338EEF0193D70301E34CC6EDB3A2E20125
:10525000B38E570083224301939F0E0193D30F41D6
:10526000939E0301B3035E0093DF0E01E34C76ECE3
:10527000332F5F00B387EF01032F8301139E0701D4
:10528000935E0E4193970E01338EE30193DF070186
:10529000E34CC6EDB3A2E201B38E5F0093930E011F
:1052A00093D703416FF05FED332F5F00B383EE01BF
:1052B0009397030193D707416FF01FD9332F5F00F6
:1052C000B38EEF0193930E0193D703416FF01FD577
:1052D000332F5F00B38FE701939E0F0193D70E41E9
:1052E0006FF01FD1332F5F00B387E301939F070156
:1052F00093D70F416FF01FCD332FDF01B383E2014E
:105300009397030193D707416FF01FC9332FDF0134
:10531000B382EF019393020193D703416FF01FC54E
:10532000130EA30093130E0193D70341130E000035
:105330006FF01FC19307000013850700678000000E
:1053400063060524131F1500931F25001308000092
:105350001307EFFF93521700138312009373730028
:1053600093870500B308CF006388030A130E10006B
:105370006388C309930E2000638AD30713073000A4
:10538000638CE30493024000638E530213035000C6
:1053900063806302130E6000639CC31F0317060043
:1053A0009387470013062600B302D70223AE57FEA9
:1053B000031306009387470013062600330ED3021B
:1053C00023AEC7FF8313060093874700130626000A
:1053D000B38ED30223AED7FF03170600938747008F
:1053E00013062600B302D70223AE57FE03130600AE
:1053F0009387470013062600330ED30223AEC7FF60
:10540000831306009387470013062600B38ED3024A
:1054100023AED7FF6386C816130101FF2326810040
:1054200023249100831406000314260083134600EE
:1054300083126600831E8600031EA6000313C600A7
:105440000317E600B384D40293870702130606010C
:105450003304D40223A097FEB383D30223A287FE92
:10546000B382D20223A477FEB38EDE0223A657FEB8
:10547000330EDE0223A8D7FF3303D30223AAC7FFCC
:105480003307D70223AC67FE23AEE7FEE39CC8F8E0
:1054900013081800B385F501630C050D9308EFFFA1
:1054A00093D718009384170013F4740093870500B2
:1054B000B308CF00E30804F69303100063087408F0
:1054C00093022000630A5406930E3000630CD40547
:1054D000130E4000630EC403130350006300640204
:1054E000130760006312E40C8313060093874700E0
:1054F00013062600B382D30223AE57FE831E060096
:105500009387470013062600338EDE0223AEC7FFC3
:105510000313060093874700130626003307D302C0
:1055200023AEE7FE83140600938747001306260088
:105530003384D40223AE87FE83130600938747008B
:1055400013062600B382D30223AE57FE831E060045
:105550009387470013062600338EDE0223AEC7FF73
:10556000E392C8EC13081800B385F501E31805F3BE
:105570000324C1008324810013010101678000001E
:1055800013081800B385F501E31405DD67800000FA
:10559000831306009387450013062600B38ED302BB
:1055A00023A0D5016FF09FDF831406009387450089
:1055B000130626003384D40223A085006FF0DFF2A7
:1055C000630005141316060113560601131F150078
:1055D000130700009307EFFF93D217001383120005
:1055E00093737300B306BF006384030A13081000AB
:1055F0006386030993082000638A1307130E3000A3
:10560000638EC305930E40006382D305930F500051
:105610006386F30393076000638AF30083D2050077
:105620009385250033035600239F65FE83D3050031
:105630009385250033087600239F05FF83D8050056
:1056400093852500330E1601239FC5FF83DE0500D9
:1056500093852500B30FD601239FF5FF83D705005F
:1056600093852500B302F600239F55FE03D3050062
:1056700093852500B3036600239F75FE03D80500BC
:1056800093852500B3080601239F15FF6386B606A0
:1056900083D3A50003D8C50083D2050083DF25008E
:1056A00083DE450003DE650003D3850083D7E50074
:1056B000B3087600B3025600B3030601B30FF60138
:1056C000B30ED601330EC601330366003308F6006D
:1056D000239055002391F5012392D5012393C50111
:1056E00023946500239515012396750023970501E2
:1056F00093850501E39EB6F813071700E31CE5EC5C
:105700006780000063000520130101FD931E150052
:10571000131525002326810223249102232221032D
:1057200023203103232E4101232C5101232A61011F
:105730002328710123268101338EA5003383D601EE
:10574000B302D3409383E2FF13D4130093041400F5
:1057500013F97400938706001307060093080000EE
:10576000630E090C13081000630C090B9309200049
:10577000630C3909130A3000630C4907930A40008F
:10578000630C5905130B5000630C6903930B600005
:10579000630C790183180600039C0600130726009A
:1057A00093872600B3888803031F0700839F0700A1
:1057B00013072700938727003305FF03B388A8004A
:1057C000831207008393070013072700938727009E
:1057D00033847202B388880083140700039907009A
:1057E000130727009387270033882403B388080111
:1057F00083190700039A07001307270093872700E0
:10580000B38A4903B3885801031B0700839B070031
:105810001307270093872700330C7B03B388880185
:10582000031F0700839F07009387270013072700A4
:105830003305FF03B388A8006308F3088312070049
:1058400083930700039C2700831927000315470053
:10585000839B47003388720203146700039B670031
:1058600083138700839A87008312A700039AA700F7
:10587000831FC7000399C700031FE700B38989038B
:105880008394E700B3880801938707011307070192
:10589000330C750333853801B30B6403330485017E
:1058A000338B530333087401B3834203B30A680193
:1058B000B3822F03338A7A00B30F9F0233095A0051
:1058C000B308F901E31CF3F623A015019385450005
:1058D0003306D601E316BEE60324C1028324810207
:1058E0000329410283290102032AC101832A81017C
:1058F000032B4101832B0101032CC1001301010380
:10590000678000006780000063020526130101FC28
:1059100023283103931725009319150023245103DD
:1059200023207103232E8101232C9101232AA1011D
:10593000232E8102232C9102232A210323264103B3
:10594000232261032328B101930B0600B30A360119
:105950002326F100938C0500338C3601130D0000D3
:10596000138A0600138B0C0033877A419302E7FFFA
:1059700013D312009303130013F47300930F0A0060
:10598000138F0B0093070000630E040C1306100026
:10599000630CC40A93042000630C94089305300040
:1059A000630CB40613084000630C04059308500010
:1059B000630C140313096000630C2401839D0B0026
:1059C000031E0A00138F2B00B30F3A01B387CD03D8
:1059D000831E0F0003970F00130F2F00B38F3F019B
:1059E000B382EE02B387570003130F0083930F00B7
:1059F000130F2F00B38F3F0133047302B387870067
:105A000083140F0003960F00130F2F00B38F3F0175
:105A1000B385C402B387B70003180F0083980F0043
:105A2000130F2F00B38F3F0133091803B3872701EA
:105A3000831D0F00039E0F00130F2F00B38F3F0134
:105A4000B38ECD03B387D70103170F0083920F00E6
:105A5000130F2F00B38F3F0133035702B387670043
:105A60006386EA0BB3833F0103140F0083940F0096
:105A7000039E030003192F0033079402338633017A
:105A8000B3053601831D060083134F0033883501AB
:105A900083940500831E6F0083188F00B3023801C2
:105AA0003309C90303140800338332010318AF001C
:105AB000839202008315CF00031E0300B30F33014E
:105AC0000316EF0003930F00B383B303B387E7001C
:105AD000B38D2701130F0F01B38F3F01B38E9E02C9
