:0200000480007A
:1000000093000000130100009301000013020000A0
:100010009302000013030000930300001304000088
:100020009304000013050000930500001306000070
:100030009306000013070000930700001308000058
:10004000930800001309000093090000130A000040
:10005000930A0000130B0000930B0000130C000028
:10006000930C0000130D0000930D0000130E000010
:10007000930E0000130F0000930F000017010400FF
:10008000130141F87370043097110200938101DA73
:1000900097020000938202777390523073F06230BF
:1000A00017F50000130585F097050200938585F587
:1000B000170602001306865963FCC500832205005B
:1000C00023A055001305450093854500E3E8C5FED0
:1000D0001705020013058557938501536378B50012
:1000E0002320050013054500E36CB5FE17C500008D
:1000F000130505FEEFB0D07AEF40100513050000A0
:100100009305000013060000EF0090236F0000002D
:10014000130101FF23261100EF00004FEF00801381
:100150008320C10013050000130101016780000026
:10016000130101FF23248100232291002320210178
:10017000232611001304000017D900001309C989B0
:100180009304A0009305040013050900EF20401517
:100190001305100013041400EF30007EE31494FEE6
:1001A00003248100970702009387474A8320C100F8
:1001B000832441000329010003A507001301010165
:1001C0006F100064130101FF23248100232291009A
:1001D000232611001304000097D400009384448563
:1001E0009305040013850400EF20800F1305A00081
:1001F000EF308078130414009307A000E312F4FE9C
:100200000324810097070200938747448320C1009D
:100210008324410003A50700130101016F10405E14
:10022000130101FF232481002322910023202101B7
:10023000232611001304000017D900001309C980F8
:100240009304A0009305040013050900EF20400962
:100250001305500013041400EF300072E31494FEF1
:1002600003248100970702009387473E8320C10043
:10027000832441000329010003A5070013010101A4
:100280006F100058130101FE9307A0001307A00090
:10029000B71600001306000097050000938585EC53
:1002A00017C5000013050573232E1100232C8100B0
:1002B000232A91002328210123263101EF30804495
:1002C000970902009389C93823A0A9009307A000C9
:1002D0001307A000B71600001306000097050000E2
:1002E000938585EE17C500001305856FEF308041BB
:1002F00017090200130909369307A0001307A0008D
:10030000B71600002320A90013060000970500007F
:10031000938545F117C500001305456DEF30803E0C
:1003200097040200938444331306000093050000F1
:1003300023A0A40017C500001305056CEF10C0141E
:1003400017040200130484302320A40003A509002D
:10035000EF30C07103250900EF30407103A50400A0
:10036000EF30C070032504009305F0FFEF10C02CA0
:10037000032504009305F0FFEF10002C0325040073
:100380009305F0FFEF10402B03250400EF10401CF5
:1003900017C5000013050567EF10907413051000D2
:1003A000EF0040028320C101032481018324410125
:1003B000032901018329C100130500001301010273
:1003C000678000000F1000007310458067800000F8
:1003D000370700208327070093E717002320F70043
:1003E00067800000370700208327070093F7E7FFA7
:1003F0002320F7006780000067800000B7C7002057
:100400009306000023ACD7FE1307000023AEE7FEDF
:10041000B747002023A0A70023A2B7006F40800A9F
:10042000B7C7002003A787FF83A7C7FF3306A7002E
:100430003388B700B336E600B3860601938806001A
:100440001308060063E6D700639CF600637A070191
:10045000B747002023A0070123A2170167800000EF
:10046000B7C700209306000023ACD7FE1307000097
:1004700023AEE7FEB747002023A0A70023A2B700C2
:1004800067800000130101FF2324810023229100D3
:1004900023202101232611001304050013890500E0
:1004A00093040600631E05001306A00297C5000012
:1004B0009385855C17C5000013054562EF10107A1F
:1004C000930700016304F90293071001630AF9021C
:1004D0008320C100032481008324410003290100FB
:1004E000130500001301010167800000930700104D
:1004F000E390F4FE930710002322F4066FF05FFDF3
:1005000093070010E396F4FC232204066FF05FFCCF
:10051000130101FF232481002322910023261100CF
:100520001304050093840500631E050013062002D2
:1005300097C500009385C55217C500001305055ADD
:10054000EF10D071639E04001306300297C50000BF
:100550009385055117C5000013054557EF1010701E
:1005600083A704008320C10083244100232AF404CC
:1005700003248100130500001301010167800000BE
:10058000130101FF23248100232611001304050019
:1005900083274406638C0700EF00001E63580500A4
:1005A0009305100013050400EF50001F1305A00071
:1005B000EF30803C6FF0DFFD130101FF2324810049
:1005C00023261100EF00401B130405001305F0FF64
:1005D0006358040037050080EF0080191375F40F8D
:1005E0008320C10003248100130101016780000002
:1005F000130101FF23248100232611001384050029
:10060000631E05001306400497C500009385054846
:1006100017C500001305854CEF1050641305040046
:10062000EF0000158320C100032481001305100092
:100630001301010167800000130101FF93074001CE
:1006400013078000B72600001386819197050000EC
:10065000938545F317C500001305054B232481003E
:1006600023261100EF30000A13040500631E050065
:100670001306600797C500009385854217C50000E3
:1006800013054549EF10905D13050400EF30003E5F
:1006900063040502032481008320C1001306700750
:1006A00097C500009385C53F17C500001305854C0D
:1006B000130101016F10905A8320C10003248100AF
:1006C0001301010167800000B7C70100130101FF9A
:1006D0009387072023A6F196232611001385819185
:1006E00083278505930600001306301093F707FF54
:1006F00093E7870023A8F1968327850597C5000017
:100700009385053F93F7F7FC93E7070123A8F1963C
:1007100083278505370700FC1307F73FB3F7E7008A
:1007200037072000B3E7E70023A8F19697C700003A
:100730009387474623A4F19623AE0196EF40907924
:10074000630205028320C1001306900897C50000CC
:100750009385C53617C500001305C539130101017E
:100760006F10D04F8320C10013010101678000008A
:10077000731005806780000073250080678000008B
:1007800067800000130101FF2326110073700430FD
:10079000EF30105FEF30D04C97E5030093858586EE
:1007A00013850153EF109067EFF01FF217C500009B
:1007B00013050534EF10902CEF00401C8320C1007E
:1007C000130101016F3050510000000000000000D3
:1007D0000000000000000000000000000000000019
:1007E0000000000000000000000000000000000009
:1007F00000000000000000000000000000000000F9
:10080000130101FB23201100232241002324510066
:100810002326610023287100232AA100232CB10084
:10082000232EC1002320D1022322E1022324F1023E
:10083000232C0103232E11032320C1052322D105DC
:100840002324E1052326F1057325203493050100B7
:10085000EF30904983220103739012348322C10246
:1008600073902234832001000322410083228100FF
:100870000323C10083230101032541018325810155
:100880000326C10183260102032741028327810237
:10089000032881038328C103032E0104832E41040E
:1008A000032F8104832FC10413010105730020303D
:1008B0000000000000000000000000000000000038
:1008C00097070200938787D903A507006780000078
:1008D00097070200938787D883A70700130101FFBA
:1008E0002326110093871700170702002328F7D645
:1008F000EF209060832745059387F7FF232AF504AF
:10090000639E070083270505232AF5048347050412
:1009100093E787002300F504EF20D0078320C10070
:10092000130101016F30806D634605021307803E9D
:10093000B347E502930640063365E5023305D50269
:100940001305753E3345E502B387D7023305F5003D
:10095000678000001305F0FF6780000013050000AA
:100960006780000013050000678000001305000089
:10097000678000001305000067800000130101FE7E
:10098000232C8100232A91002328210123263101D1
:10099000232E110017E400001304C44297E4000062
:1009A0009384C44217C900001309892597C9000020
:1009B00093890926636094028320C1010324810185
:1009C00083244101032901018329C100130101028C
:1009D00067800000832504001305090013048400C8
:1009E000EF1010108327C4FFE78007009305050070
:1009F00013850900EF10D00E6FF0DFFB130101FE2D
:100A000017C5000013058521232C8100232A91009E
:100A10002328210123263101232E110017E4000091
:100A20001304C43AEF10D00B97E400009384043C05
:100A300017C900001309C91C97C900009389491DF3
:100A4000636094028320C101032481018324410156
:100A5000032901018329C1001301010267800000FD
:100A6000832504001305090013048400EF105007C8
:100A70008327C4FFE780070093050500138509005D
:100A8000EF1010066FF0DFFB130101FF23261100AA
:100A9000EFF0DFF68320C100130101016FF04FEA90
:100AA000130101FF930740011307A00093060040C4
:100AB0001306000097050000938545FD17C500004B
:100AC000130585122324810023261100EF20904373
:100AD00013040500631E05001306800C97C5000073
:100AE0009385850C17C5000013058510EF101017AE
:100AF00013050400032481008320C10013010101B8
:100B00006F20D076130101FF23261100EF3010195A
:100B1000EFF05FC7EF101007EF30807EEF20804BC3
:100B2000EFF01FF8EF30C07EEF004073EF20406120
:100B30008320C1001305000013010101678000003C
:100B4000130101FF23261100EFF0DFFB8320C1001A
:100B5000130500001301010167800000130101FE6D
:100B600023263101232E1100232C8100232A9100FA
:100B70002328210193090500EF20103863040500A4
:100B8000EF20407C13059000EF20000413040500C3
:100B9000631E05001306C00797C500009385050A6C
:100BA00017C5000013054510EF10500B83244400B7
:100BB0001304440063988400EF20103413090000EC
:100BC0006F000002138984FE13064001938509001B
:100BD00013050900EF10401663180502EF20D0310D
:100BE00063040500EF2080788320C1010324810184
:100BF0001305090083244101032901018329C10050
:100C0000130101026780000083A404006FF09FFAC3
:100C1000631405021305F0FF678000001305F0FF61
:100C20008320C100032481008324410003290100A3
:100C30001301010167800000130101FF23248100DB
:100C400013040500138505002322910023202101B0
:100C5000232611001309060093840500EFF01FF00E
:100C6000E31E05FA130504001386040093059000A3
:100C7000EF1050791305000023122403230404020B
:100C8000231304026FF0DFF9130101FF2324810015
:100C900023202101232611002322910013040500A3
:100CA00013890500631E05001306400F97C5000059
:100CB0009385C5F917C5000013054505EF10007AA7
:100CC00013050400EF20C02C93079000630EF5007D
:100CD0001306500F97C50000938545F717C5000010
:100CE0001305C503EF1080778357440293F707017C
:100CF000639C0704832744036382070413050400ED
:100D0000E780070093040500630A05021306050047
:100D10009305040017C50000130585FAEF10405C29
:100D20008320C100032481001385040003290100EE
:100D300083244100130101016780000083574402AE
:100D400093E707012312F4028357440293F78700C5
:100D5000638A070083576402930490FF93F7870028
:100D6000E39007FC83278403638A07049305090043
:100D700013050400E780070093040500631C0504C5
:100D80008357640293E787002313F40283478402A6
:100D90009387170093F7F70F2304F402E39207F801
:100DA0001306301297C50000938545EA17C5000069
:100DB000130585F4EF10806A6FF09FF6B7170000F7
:100DC0009387F7F03379F900231324039304000089
:100DD0006FF01FFB9307A0FFE314F5F46FF05FFAC9
:100DE000130101FF232481002326110013040500B1
:100DF000631E05001306501397C50000938505E692
:100E000017C50000130585F0EF10406513050400B9
:100E1000EF20001893079000630EF500130660138F
:100E200097C50000938585E317C50000130505EFFE
:100E3000EF10C062834784021305F0FF638007044C
:100E40009387F7FF93F7F70F2304F40213050000CD
:100E5000639607028327C403639807001305000005
:100E6000231304026F00800113050400E7800700CC
:100E7000E30605FE9307A0FFE304F5FE8320C1000F
:100E8000032481001301010167800000130101FEAA
:100E9000232C8100232A91002328210123263101BC
:100EA000232E110013040500938405001309060086
:100EB00093890600631E05001306F01597C5000010
:100EC0009385C5DA17C50000130545E4EF100059F6
:100ED00013050400EF20C00B93079000630EF5008C
:100EE0001306001697C50000938545D817C5000066
:100EF0001305C5E2EF108056834784021305F0FF07
:100F0000638E07020323040463080302130504002D
:100F1000032481018320C10193860900130609007F
:100F20008329C10003290101938504008324410121
:100F300013010102670003001305A0FFEF005046F4
:100F40008320C1010324810183244101032901017C
:100F50008329C1001305000013010102678000000E
:100F6000130101FE232C8100232A91002328210153
:100F700023263101232E110013040500938405005C
:100F80001309060093890600631E05001306601806
:100F900097C50000938585CE17C50000130505D7BA
:100FA000EF10C04B13050400EF10907E93079000E4
:100FB000630EF5001306701897C50000938505CCE5
:100FC00017C50000130585D5EF10404983478402FB
:100FD0001305F0FF638E0702032344046308030232
:100FE00013050400032481018320C10193860900B5
:100FF000130609008329C100032901019385040018
:101000008324410113010102670003001305A0FFBF
:10101000EF0010398320C1010324810183244101A1
:10102000032901018329C1001305000013010102F6
:1010300067800000130101FF232481002322910017
:10104000232611001304050093840500631E050088
:101050001306101C97C50000938545C317C50000F3
:101060001305C5CAEF10803F13050400EF1050723E
:1010700093079000630EF5001306201C97C500002F
:101080009385C5C017C50000130545C9EF10003D85
:10109000232694028320C10003248100832441007D
:1010A000130500001301010167800000130101FD19
:1010B000232E31019389018923229102232C41019E
:1010C0002328610123267101232481012326110293
:1010D0002324810223202103232A51019384090020
:1010E00017CA0000130ACAC917CB0000130BCBCADA
:1010F00097CB0000938BCBCC130C100083A7090077
:10110000639A97028320C10203248102832441024F
:10111000032901028329C101032A8101832A410194
:10112000032B0101832BC100032C81001301010358
:1011300067800000EF30803613040500EF00D00315
:101140006300050293050A0013050B00EF10401918
:101150001306000A93050A0013850B00EF100030F8
:1011600013050400EF300034EF30403383A7040050
:10117000930A0500638C970403A4040083270400EA
:1011800003274400130904FE23A2E70003274400B9
:101190002320F7002322840023208400EF20801ADC
:1011A000832704076386070013050900E78007000B
:1011B00013050900EF109059631285051305090006
:1011C000EF10D035EF20801A13850A000324810226
:1011D0008320C10283244102032901028329C10122
:1011E000032A8101832A4101032B0101832BC100C2
:1011F000032C8100130101036F30C02AEF20001778
:1012000013850A00EF30002A03254401EF10407EC9
:1012100013050900EF1090496FF05FEE130101FF15
:101220002320210123261100232481002322910061
:1012300013094000938481A11304000083A70400D4
:1012400063840700E78007001304140093844400BC
:10125000E31624FFEFF09FE56FF0DFFD130101FDC2
:101260001306000097C500009385C5B51305C1009E
:101270002326110223248102EF00107C138401989D
:101280009305C100930800021308F0019307C018EA
:10129000138781A29306000017060000130646F884
:1012A00013050400EF20C03713050400EF20007C75
:1012B0008320C1020324810213010103678000001F
:1012C000130101FF23248100232291002326110012
:1012D00023202101130405009304F0FF8327040059
:1012E0006310F4028320C1000324810083244100A1
:1012F00003290100130500001301010167800000AC
:10130000EF30C0191309050003250400232E9500B2
:10131000130505FEEF20C06713050900EF308018A4
:101320006FF0DFFB130101FF130505FE23261100FB
:10133000EF2000668320C1001305000013010101A6
:1013400067800000130101FE232C810013040500B7
:10135000138505002326C1002324B100232E11008C
:10136000EF2080440326C10083258100630006022C
:1013700093071000630AF6028320C1010324810150
:1013800013050000130101026780000003274400D9
:10139000938705022320F70023A2E5022322F4000D
:1013A00023A085026FF05FFD832704006388870018
:1013B00083C6150403C7170263F0E60283A647003D
:1013C0001387050223A0E60023A2D50223A2E7008B
:1013D00023A0F5026FF05FFA83A707006FF01FFDEF
:1013E000130101FE232C8100232A910023282101CF
:1013F00023263101232E11001304050093890500D3
:101400009304060013890600631E05001306200DD1
:1014100097C500009385859B17C500001305C5AAD5
:10142000EF10C003B707010063EEF4001306300DA0
:1014300097C500009385859917C500001305C5A9B8
:10144000EF10C00113050400138609009305200066
:10145000EF10407B93070402A30A24012314940293
:101460002322F4022320F4028320C10103248101FA
:1014700083244101032901018329C10013050000D0
:101480001301010267800000130101FE232C81007B
:10149000232A91002328210123263101232E110024
:1014A000130905001384050093040600EF20107F44
:1014B00093090500EF00404C6308050297C5000042
:1014C0009385859117C500001305058DEF005061C8
:1014D0001306F01097C500009385059017C500000E
:1014E0001305058EEF00907713850900EF20907BA0
:1014F000B7070100636EF4001306001197C50000E2
:101500009385858D17C500001305059DEF001075A7
:101510009305090013052000EF10D007630C0500A8
:10152000930705022322F5022320F50223148502E6
:10153000A30A95008320C101032481018324410172
:10154000032901018329C100130101026780000002
:10155000130101FF2324810023229100232611007F
:1015600013040500EF20907393040500EF00C040C2
:101570006308050297C500009385058717C500001D
:1015800013058581EF00D0551306F01297C50000B2
:101590009385858517C5000013058582EF00106CC3
:1015A00013850400EF201070631E0400130620133F
:1015B00097C500009385458317C500001305C590A6
:1015C000EF00D06913050400EF10901C9307200072
:1015D000630EF5001306301397C500009385C58090
:1015E00017C500001305C586EF00506713050400FA
:1015F000EF10D015630E05001306401397B50000D9
:101600009385857E17C500001305C580EF00106522
:1016100013050402EFF0DFCA13050400EF101009F0
:101620008320C100032481008324410013050000AE
:101630001301010167800000130101FD23248102D1
:10164000232611022322910223202103232E31017C
:101650002326B10013040500631E050013060015C0
:1016600097B500009385457917C500001305C5851A
:10167000EF00D05E13050400EF10901193072000D7
:10168000630EF5001306101597B500009385C57617
:1016900017B500001305C57BEF00505C9387C18729
:1016A00083A707006386070013050400E78007008F
:1016B000EF20D05E835784029309050063880702F8
:1016C0009387F7FF2314F402EF20D05D938781877F
:1016D00083A70700130500006382070213050400B7
:1016E000E7800700130500006F0040018327C10059
:1016F00063940702EF20105B1305E0FF8320C10213
:101700000324810283244102032901028329C101A8
:101710001301010367800000EF2050589304050077
:10172000EF10907D6318050297B500009385C56C96
:1017300017B500001305857BEF00903A13061017CC
:1017400097B500009385456B17B5000013054567F5
:10175000EF00D050EF20905413090500EF00C02196
:101760006308050297B500009385056917B5000069
:1017700013058562EF00D0361306101797B50000E9
:101780009385856717B5000013058563EF00104D3D
:1017900013050900EF20105113850400EF2090502D
:1017A000EF109075232E05020346540193050500A2
:1017B0009304050013050402EFF0DFB88327C1008E
:1017C0006350F002138984051306C10093050000DD
:1017D00013050900EF20007313050900EF20004EE8
:1017E00013850900EF20104CEF10D01A03A5C40395
:1017F000E30E05EC6FF09FF0930500006FF0DFE360
:10180000130101FE232C8100232E1100232A9100B5
:1018100013040500631E05001306D01B97B50000D6
:101820009385455E17B500001305056AEF00104368
:1018300013050400EF10C07593072000630EF50038
:101840001306E01B97B500009385C55B17B5000034
:1018500013050560EF0090409387418783A7070039
:101860006386070013050400E7800700EF2010439C
:101870008327040213070402930405006388E70228
:1018800013850700EFF01FAA13041000138504004E
:10189000EF20504113050000630E04022326A1002F
:1018A000EF10500F0325C1006F00C0028357840260
:1018B000370701001307F7FF638AE70093871700D4
:1018C0002314F402130400006FF05FFCEF20903D3E
:1018D0001305D0FF8320C10103248101832441012A
:1018E0001301010267800000130101FE232E110085
:1018F000EF20D03A97F7010083C707D793871700E7
:1019000017F701002302F7D697F70100938747D511
:1019100083A70700638807002326A100E78007004C
:101920000325C1008320C101130101026F209037FC
:10193000130101FE232E1100EF20503697F701000E
:1019400083C787D29387F7FF17F70100230EF7D0DD
:1019500097F70100938707D183A7070063880700E3
:101960002326A100E78007000325C1008320C101D1
:10197000130101026F201033130101FF2326110010
:1019800023248100EF20903117F401000344C4CDDB
:10199000EF205031130504008320C100032481008F
:1019A000130101016780000093780804130101FF0F
:1019B00097BE0000938E0E676396080097BE0000E6
:1019C000938E0E7493780801638408001378E8FFFF
:1019D00093781800130F000263840800130F0003AC
:1019E000937828006382080A635E06023306C040CB
:1019F0001303D00293080000930FA000639AF60926
:101A0000337ED6023356D602338ECE01034E0E00FD
:101A100093881800B3021101A38FC2FFE31006FEE2
:101A20006F00C002937848001303B0026398080067
:101A3000137388003333600013135300E31C06FA5A
:101A4000930600032300D1009308100013860800BA
:101A500063D4F80013860700937618013307C74054
:101A600063940606630E03069306F7FF634CE006D5
:101A7000138706006374B500230065001307F7FFA2
:101A8000130515006F008004130300006FF01FFBA7
:101A9000137EF600135646006FF01FF76374B7000D
:101AA0002300F70113071700338EEE40E348C0FF11
:101AB0001387060063D40600130700009386F6FF21
:101AC0003305E5003387E640E31603FA137808018F
:101AD000630A08043306C500130800036F000006FC
:101AE0009306070013070500B30ED500930F0002FD
:101AF0006FF09FFB63F4B6002380E6019386160027
:101B00003308D340E34800FF9306070063540700FF
:101B1000930600001307F7FF3305D5003307D740BE
:101B20006FF05FFB930605003303E5006FF05FFD88
:101B30006374B5002300050113051500B306A64024
:101B4000E3C8D8FE63541001639A070093070500A9
:101B50003306E500130800026F00C0026378B50089
:101B6000B306110183C6F6FF2300D5001305150047
:101B70009388F8FF6FF01FFD63F4B700238007011F
:101B800093871700B306F640E348D0FE635407007E
:101B9000130700003305E500130101016780000011
:101BA000130101FF232481002326110013040500E3
:101BB000EFF09FDC630C050023A081848320C1002B
:101BC000032481001301010167800000EF10D0326F
:101BD000E30405FE232E85026FF05FFE130730003D
:101BE000930705006378C70093773500638A070081
:101BF000930705003386C700639EC708678000000F
:101C000093F7F50F13978700B367F7001397070152
:101C10003367F700B308C500930705009306F0008B
:101C20003388F84063E6060593574600930600FFA5
:101C3000B386D70293974700B307F5001308300027
:101C40003386C6003383C70093860700B308D340AA
:101C5000636C1803135726009306C0FFB306D70220
:101C600013172700B387E7003386C6006FF09FF88D
:101C700023A0E70023A2E70023A4E700938707013E
:101C800023AEE7FE6FF0DFF99386460023AEE6FE53
:101C90006FF0DFFB93871700A38FB7FE6FF0DFF5C0
:101CA0003307C50063E8A50093070500639AE702C0
:101CB00067800000B387C5003306F640E376F5FE83
:101CC000B386C70063940600678000009387F7FF20
:101CD00083C607001307F7FF2300D7006FF05FFEEE
:101CE0009385150083C6F5FF93871700A38FD7FE52
:101CF0006FF0DFFB63000604930705009385150072
:101D000003C7F5FF938717009306F6FFA38FE7FE3F
:101D1000631E07003386C700938717006394C700CC
:101D200067800000A38F07FE6FF01FFF1386060079
:101D3000E39606FC678000003386C5006396C50005
:101D4000930700006F00800293851500034705008C
:101D500083C7F5FFB307F7409397870193D7874170
:101D60006396070013051500E31A07FC13850700A7
:101D7000678000009307050003C70700631607008C
:101D80003385A74067800000938717006FF0DFFE60
:101D9000130101FC232A910293840500232C810264
:101DA00023263103232C8101232E11022328210312
:101DB000232441032322510323206103232E710195
:101DC000232A91012328A101330C95001304050057
:101DD00093850600930905006376AC009344F5FFF4
:101DE000130CF0FF37090100130AB002930A000236
:101DF000130B30021309F9FF6F0040021307500262
:101E00006386E706637484012300F400130514005D
:101E1000930B060013861B0013040500834706007E
:101E2000E39E07FC63860400637C843F2300040078
:101E3000330534418320C1030324810383244103F8
:101E4000032901038329C102032A8102832A410253
:101E5000032B0102832BC101032C8101832C41013F
:101E6000032D010113010104678000001308000025
:101E70001307D002930600036F000001639047032D
:101E80001368480013860B0083471600930B160057
:101E9000E396E7FE136808016FF0DFFE63965701D3
:101EA000136888006FF01FFE6396670113680802CD
:101EB0006FF05FFD6396D700136818006FF09FFC0A
:101EC000138707FD9306900063E2E6061307000000
:101ED000930690001305A0006F0040013307A7028E
:101EE000938B1B003307F700130707FD83C70B0015
:101EF000138607FDE3F4C6FE03C60B009306E0025B
:101F00009307F0FF631CD60683C71B0013069000DF
:101F100093861B00138507FD6362A60C93070000E0
:101F2000130590001303A0006F00C0039306A002E6
:101F30001307F0FFE392D7FC03A70500930B2600DD
:101F400093854500E35A07FA3307E0401368080118
:101F50006FF09FFAB387670293861600B387C700B6
:101F6000938707FD03C60600930806FDE37415FF7B
:101F700063D4070093070000938B060003C50B0092
:101F8000930680061376B50F631CD606938B1B0051
:101F900003C60B00930690066300D60863E4C608E8
:101FA00093068005630ED62463E0C60693075002AD
:101FB0006300F62463768401930750022300F40043
:101FC00083C70B0013051400638207246374850123
:101FD000A300F400130524006FF0DFE31306A00252
:101FE000639AC70083A7050093862B00938545005D
:101FF0006FF01FF8938B0600930700006FF01FF837
:10200000130500006FF0DFF8930630066304D60A6C
:1020100093064006E310D6FA136828009306A00042
:102020006F004005930630076300D61063EAC602CE
:102030009306F006630CD60693060007E31CD6F65B
:102040009306F0FF6316D70013681800130780008B
:10205000938C45009306000103A605006F00C003A2
:1020600093065007E30CD6FA930880079306000105
:10207000E31216F51306C006938C4500E30EC5FC6B
:1020800013068006E31AC5FC03A605009375280015
:10209000639205183376260193050C00130504009E
:1020A000EFF09F9093850C006FF0DFD693068000D1
:1020B0006FF05FFC13780801631C080293070700A8
:1020C000930600026F000001637484012300D400B2
:1020D000130414009387F7FFE348F0FE9307F7FF1C
:1020E0006344E000130710003387E740130717002D
:1020F000938745006376840183A605002300D400FE
:1021000013051400930600021307F7FF6346E0006F
:10211000938507006FF01FD0637485012300D500FD
:10212000130515006FF05FFE83AC0500138D4500AD
:1021300063960C0097BC0000938C0CFC13850C007C
:102140002326F1002324E10023220101EFF09FC2A6
:102150008327C1009306050003284100032781005F
:102160006356F00063D4A700938607001378080134
:1021700013060002630008049307000063C4D70439
:102180009387060063D40600930700003305F4002C
:102190003307E50013060002B307A74063C2F60445
:1021A00093050D006FF01FC7637484012300C40002
:1021B000130414001307F7FF93071700E3C6F6FE96
:1021C0006FF09FFB3306F40063788601B385FC0053
:1021D00083C505002300B600938717006FF01FFA30
:1021E000637485012300C500130515006FF0DFFA45
:1021F000637484012300C400130514006FF09FC1B1
:1022000013680804930600016FF0DFE6938BFBFF71
:102210006FF05FC013160601135606416FF0DFE73B
:10222000A30F0CFE6FF0DFC09306060013860500B7
:102230009305F0FF6FF0DFB5130101FC2324C10209
:1022400013068102232E11002326D1022328E10246
:10225000232AF102232C0103232E11032326C1007C
:10226000EFF09FFC8320C10113010104678000008F
:102270009387418403A5070067800000130101FFD5
:1022800023229100938441842320210123261100DD
:102290002324810003A90400EFE05F8C63020502A0
:1022A0001304050003A5040063040500EFE05FB319
:1022B0009305300413050400EFE01F9D23A28184E1
:1022C0008320C100032481001305090083244100F9
:1022D00003290100130101016780000067800000ED
:1022E000130101FC2322B1022324C1022326D102BF
:1022F00013060500930641029305F007138541BBC1
:10230000232AF1022326D100232E1100232C810041
:10231000232A91002328E102232C0103232E1103F9
:10232000EFF01FA7938741849306050003A50700DC
:1023300063100502138541BBEFF05FFA8320C101F2
:1023400003248101832441011301010467800000FB
:10235000835465021384070093E704042313F502F2
:102360009307F00763F4D7009306F007138641BB89
:1023700093050000EFE0DFBE83270400239397025C
:102380006FF0DFFB130101FF17B50000130545CE09
:1023900023261100EFF0DFF417B50000130505CE7A
:1023A000EFF01FF417B50000130545D017B7000074
:1023B000130707CF93063000130600009305400073
:1023C000EFF01FF28320C10017B50000130505D000
:1023D000130101016FF0DFF0630005081377F50FBB
:1023E00097B60000938606B4630A0700B386E6003A
:1023F00003C506001305150067800000B70701003C
:10240000938707F0B377F500638E07001355854077
:102410001377F50F3387E600034507001305950092
:1024200067800000B707FF00B377F500638E0700F1
:10243000135505419377F50FB387F60003C50700E1
:102440001305150167800000135585013385A6002B
:1024500003450500130595016780000013888184FA
:1024600003230800130101FE232E1100A30701001E
:10247000631A030293060600138605009305050000
:1024800017B50000130545BBEFF09FE58347F1004A
:1024900093F7F70FE38C07FE8320C10113010102BC
:1024A000678000008320C10113010102670003005F
:1024B0009387C18583A50700130101FF17B50000AD
:1024C000130505C823261100EFF09FE1938781864D
:1024D00083A5070017B500001305C5C7EFF05FE03F
:1024E000938781858320C10083A5070017B500006D
:1024F000130585C7130101016FF09FDE93870185E6
:1025000003A70700130101FF2324810023202101D9
:1025100023261100232291001304050013890700CC
:10252000637EE5001306100A97B50000938585BE0B
:1025300017B50000130505C8EFF05FF29387C1845B
:1025400003A7070093840700636EE4001306200AC4
:1025500097B50000938505BC17B50000130585C726
:10256000EFF0DFEF83572400638E07001306300A75
:1025700097B50000938505BA17B50000130545C847
:10258000EFF0DFED0327090083274400B307F700CE
:10259000630EF40283D62700639A060283A6040022
:1025A0006386F6029386418583A606006394F6004F
:1025B00023AA818483A647002322D40083A747004F
:1025C000B306E440B307F70023A4D70083268400B2
:1025D000B307D7006308F40203D62700631406028A
:1025E00013864185032606006314860023AAF1841E
:1025F0000326440023A2C700832744003307F700C3
:102600002324D7008320C1000324810083244100B8
:10261000032901001301010167800000130101FE7D
:10262000232C8100232A9100232821012326310114
:10263000232E1100930405001389050013F4C5FF30
:10264000EF10D06593090500EFF00FB363080502A2
:1026500097B500009385C5AC17A500001305C57399
:10266000EFF01FC81306200D97B50000938545AB0A
:1026700017A500001305C574EFF05FDE1385090090
:10268000EF1050629307800163FC87089387340042
:1026900093F7C7FF130784FE6364F7083307F4401A
:1026A000930687FE23AED18423A8F184B7260000C9
:1026B000130747FF938606EA23A0D70023A2E7006B
:1026C00023A40700B387E70023A6F184B7260100FF
:1026D000938606EA23A0D70023A2E70023A4E700FD
:1026E000930600001306100097B50000938545CEB1
:1026F000138541C3EFE0DFCE9387018583A70700F1
:102700008320C1010324810123AAF1848324410190
:10271000032901018329C100130101026780000020
:10272000032481018320C1018329C100130609000C
:1027300093850400032901018324410117B500009A
:10274000130585C9130101026FF09FB9130101FE42
:10275000232E1100232C8100232A910023282101FC
:102760002326310163160500130900006F00001DC8
:1027700013040500EF10905293040500EFF0CF9F73
:102780006308050297B500009385C59A17A5000058
:1027900013058560EFF0DFB41306801197B50000D4
:1027A0009385459917A5000013058561EFF01FCBB0
:1027B00013850400EF10104F9387C18503A707000E
:1027C000130434001374C4FF93840700E36E87F886
:1027D0009307C0006374F4001304C0009305F0FF76
:1027E000138541C3EFE05FE59387418583AE070022
:1027F0009387018583A6070083A50400138E070035
:102800003387DE40B388854063681701138541C371
:10281000EFE01FFF6FF05FF5B384E60083D724007D
:1028200003A54400639007183306E540130846FFEC
:10283000636A8816938881859387818603A308003D
:10284000930884011309C40083A707006368181163
:1028500033082701B728000033860601938808EA69
:102860002322A6002324E6002320160113071000CC
:1028700023A204012391E400032746009385C500A9
:102880006306B700B386E60023A406019387C7005A
:10289000B387870023A4F1866374F30023ACF1842B
:1028A000B7270000938707EA2390F4009389C18437
:1028B000638E9E0A138541C3EFE09FF483A709004E
:1028C0003389240163FE27011306601897B50000C1
:1028D0009385458617B50000130585A3EFF01FB853
:1028E0001389C40093773900638E070013067018AC
:1028F00097B500009385058417B50000130585A5DD
:10290000EFF0DFB593F43400638E040013068018F3
:1029100097B500009385058217B50000130545A8FB
:10292000EFF0DFB39387418683A707006388070032
:102930009305040013050900E78007008320C10107
:1029400003248101130509008324410103290101A6
:102950008329C100130101026780000013071000E2
:102960002391E400B307F6006FF0DFF283A60900BD
:1029700003260E00938704001307000083D5270069
:1029800063980500E30807F223AAF1846FF09FF231
:10299000E38AD7FE83A7470013071000B307F600AA
:1029A0006FF0DFFD130705006FF01FE63306B50279
:1029B000130101FE232C8100232E110013050600B4
:1029C0002326C100EFF09FD813040500630805001B
:1029D0000326C10093050000EFF04FA0130504008B
:1029E0008320C101032481011301010267800000DB
:1029F000630A051C130101FF232481002322910097
:102A0000232611002320210113040500EF101029B3
:102A100093040500EFE05FF663040502938581806F
:102A200017A5000013054537EFF09F8B1306F02222
:102A30009385818017A5000013058538EFF01FA24C
:102A400013850400EF10102693773400638C070081
:102A5000130610239385818017A500001305457B7D
:102A6000EFF0DF9F9387018503A707001389070015
:102A70006368E4009387C18483A70700636CF40054
:102A8000130630239385818017A500001305457B2D
:102A9000EFF0DF9C9387018683A70700638607001A
:102AA00013050400E7800700832709006360F41022
:102AB0009387C18483A70700637AF40E9305F0FF20
:102AC000138541C3EFE05FB7835764FF930444FF6E
:102AD000638A0700035744FFB7270000938707EA7C
:102AE0006304F70217A500001305457BEFF04FFFC5
:102AF000835644FF035664FF9385040017A5000026
:102B00001305857BEFF0CFFD835764FF639C0700BF
:102B1000130610259385818017A500001305C57C39
:102B2000EFF0DF93035744FFB7270000938707EACE
:102B3000630CF700130620259385818017A50000FC
:102B40001305457BEFF09F91B7270000938707EAB5
:102B5000231AF4FE9387418583A70700231B04FEF5
:102B600063F4F40023AA918493878186032784FF6A
:102B700083A7070013850400B387E74003270900F4
:102B80003387E440B387E70023A4F186EFF01F9773
:102B9000032481008320C100832441000329010014
:102BA000138541C3130101016FE09FC58320C1005C
:102BB0000324810083244100032901001301010142
:102BC000678000006780000097D6010093868643E7
:102BD00093070000138706001306900083A50600E4
:102BE0006398A500939747003305F70067800000BE
:102BF0009387170093860601E392C7FE1305000032
:102C000067800000130101FD2324810213040500E5
:102C1000138505002322910223202103232A510139
:102C200023261102232E3101232C41012328610187
:102C30002326710113890500930A0600EFF0DFF8DF
:102C400093040500631E05001306501497A50000A9
:102C50009385457C17A5000013050505EFF01F803F
:102C6000EF00406E83A94400138A440017AB0000B4
:102C7000130B4B7A97BB0000938B8B85631E3A072F
:102C8000EF00C06E136909F8230A240113064001FE
:102C900093850A0013050400EFF0CF859387C18662
:102CA00083A707006386070013050400E780070079
:102CB000EF10C07E03A74400930784018320C10264
:102CC0002322F700232CE40023A2F400232E440146
:102CD0000324810283244102032901028329C101C3
:102CE000032A8101832A4101032B0101832BC100A7
:102CF000130101036F10007B938789FE638C07002B
:102D0000631AF4001306501593050B0013850B008E
:102D1000EFF0CFF483A909006FF05FF6130101FF14
:102D2000232481002326110013040500631E0500DF
:102D30001306201897A500009385C56E17A50000FF
:102D40001305C577EFF08FF19387018783A70700FD
:102D50006386070013050400E7800700230A0400C8
:102D6000EF10C0738326C4010327840193078401F5
:102D70008320C1002322D7008326C40123A0E600BC
:102D8000232EF400232CF4000324810013010101FD
:102D90006F104071130101FE232C810023282101B3
:102DA00023263101232E1100232A91001309050047
:102DB00093890500EF10806E13040500EFE0DFBB80
:102DC0006308050297A500009385056717A5000015
:102DD000130585FCEFF0CFD01306501A97A500001D
:102DE0009385856517A50000130585FDEFF00FE7B6
:102DF00013050400EF10006B13050900EFF0DFDC92
:102E000093040500631E05001306901A97A50000A1
:102E10009385856217A50000130505E9EFF00FE41F
:102E200003A5C400EFF09F9213040500630005069C
:102E300003A6C40093050000EFE05FDA130640012B
:102E4000230A2401A30A0400938509001305040042
:102E5000EFE05FEA9387C18683A7070063860700D8
:102E600013050400E7800700EF10406303A7440048
:102E700093078401938444002322F700232CE40069
:102E800023A0F400232E9400EF10C061130504006A
:102E90008320C1010324810183244101032901010D
:102EA0008329C1001301010267800000130101FFA3
:102EB000232481002326110013040500631E05004E
:102EC0001306301E97A500009385455817A50000EE
:102ED0001305C55EEFF08FD88307440163DE07005A
:102EE0001306401E97A500009385455617A50000C0
:102EF0001305055AEFF08FD69387018783A7070044
:102F00006386070013050400E7800700230A040016
:102F1000EF10C0588326C40103278401930784015E
:102F20002322D7008326C40123A0E600232EF40029
:102F3000232CF400EF100057130504000324810034
:102F40008320C100130101016FF09FAA130101FF4B
:102F5000232481002326110013040500631E0500AD
:102F60001306502097A500009385854F17A50000F4
:102F70001305C554EFF08FCE030544018320C10033
:102F8000032481001355F50113010101678000003E
:102F9000130101FF232481002326110013040500DF
:102FA000631E05001306802197A500009385054D3B
:102FB00017A5000013058550EFF04FCA03454401E3
:102FC0008320C100032481001375F507130101015B
:102FD0006780000023960188938701C613070000CD
:102FE0009306000223A2F70023A0F700130717009F
:102FF00093878700E318D7FE23AC01889387018964
:1030000023AAF18823A8F18867800000130101FF3B
:10301000232481002326110013040500631E0500EC
:103020001306402C97A500009385854B17A500003B
:103030001305C553EFF08FC2EF10404693874188C8
:1030400003A707008347040493F787FF631E8700E5
:1030500093E737002300F404032481008320C10098
:10306000130101016F10004493E717002300F404DB
:10307000834714049306040213973700938701C60D
:10308000B387E70003A747002320D7002322E402E9
:1030900023A2D70013878189032707002320F40286
:1030A00083274404B3E7E70023ACF1886FF0DFFA2D
:1030B000130101FF232481002326110013040500BE
:1030C000631E05001306503297A500009385054343
:1030D00017A5000013058549EFF04FB8EF10003C2D
:1030E0000327040283264402930704022322D70005
:1030F0008326440223A0E6002320F4022322F402C4
:103100008347140413973700938701C6B387E700FA
:1031100003A70700631EF7008327440413878189F0
:103120000327070093C7F7FFB3F7E70023ACF18845
:10313000032481008320C100130101016F10803638
:103140009387818903A50700130101FF232611003E
:1031500023248100EFF04FA81305F5FF93173500E6
:10316000138501C63305F50003240500130504FE8D
:1031700023A2A188EFF0DFF3930730002300F402CD
:1031800013058400032481008320C1001301010181
:103190006F10004A130101FE23282101232E110084
:1031A000232C8100232A910023263101232441016D
:1031B000EF10C02E83D7C18813090500639607104E
:1031C0009387818903A5070063000510EFF0CFA066
:1031D0001305F5FF13173500938701C6B387E70082
:1031E000138741888324070003A407009306300057
:1031F00083C70404130404FE9309070013F6770041
:10320000130A00006312D60203C714046360A70EFA
:10321000130A10006316A70013F78700630C070C4E
:1032200093F777FF2380F404638E840E2380A188B4
:1032300023A281889387818883A70700638807007A
:103240009305040013850400E780070063060A0065
:1032500013850400EFF09FDB13050400EFF05FE53A
:10326000834704041307300293F787FF93E737007F
:103270002300F4048327440383C60700639CE6000D
:103280000327840263F8E70083268403B386D7000C
:1032900063F8E6069305040017A500001305C5278B
:1032A000EFF00F84EF30004FEF10401F6310050068
:1032B00097D7010083C7473B138584029305840297
:1032C000639E0704EF108015032481018320C10150
:1032D000832441018329C100032A810013050900C9
:1032E00003290101130101026F10C01B13840400A4
:1032F0006FF01FF313840400130A00006FF05FF2F5
:1033000093870702E3E6E7FA9305040017A5000098
:1033100013054522EFE0DFFC6FF09FF9EF10400C42
:103320006FF09FFA13850400EFF09FD803A7090000
:103330008347070493F787FF93E737002300F704D9
:103340006FF09FF8130101FF23261100EF10001505
:103350001387C188835707008320C1009387170014
:103360002310F700130101016F10C013130101FFB7
:1033700023261100EF10801283D7C1889387F7FFAF
:103380009397070193D707412396F1886342F00290
:1033900023960188EF1000119387418883A70700C7
:1033A000638E07008320C100130101016FF09FDECF
:1033B0008320C100130101016F10C00E8320C100E2
:1033C0001301010167800000130101FF9387418809
:1033D0002324810003A40700232611002322910047
:1033E000EF10C00B9304050013050400EFF05FCC51
:1033F000930740002300F40413058405EF00100038
:1034000013050400EFF09FB4930710006318F50252
:10341000832704096394070213050400EFF01F904B
:10342000EFF05FD7032481008320C10013850400DF
:1034300083244100130101016F10C00693870189A5
:1034400083A607001307040223A2E6002320D40268
:103450002322F40223A8E1886FF09FFC130101FFEF
:1034600023261100232481002322910023202101FF
:103470009384070093070502130405002322F50235
:103480002320F5022326B5022328C502232AD502CC
:10349000232CE5021306070093053002138506006E
:1034A00013090800EFE08FF3832784030326440306
:1034B000832504030325C4029387C7FF3306F60060
:1034C00097060000938686F0EF00106D2324A40277
:1034D0009307F00163FE97001306500997A50000BB
:1034E0009385050A17A5000013058511EFE01FF766
:1034F0009307000023019404A300940423220404EE
:1035000023282405232A2405232E0402230004044F
:1035100023280408232A0408130700009306040044
:1035200017060000130646049305040013058405DE
:10353000EF0000629387C18983A7070063860700B5
:1035400013050400E78007008320C10003248100E5
:103550008324410003290100130500001301010128
:1035600067800000130101FF23248100232611003E
:1035700013040500631E05001306403497A50000E0
:103580009385C50617A50000130545FEEFE01FED66
:10359000834704041307200093F77700638EE70046
:1035A0001306503497A500009385450417A5000025
:1035B0001305050EEFE09FEA13050400EFF05F9D91
:1035C00093071000630EF5001306603497A5000002
:1035D0009385C50117A500001305450FEFE01FE80F
:1035E00083264402032704029307E0FF232EF402FC
:1035F0002322D70083264402930704021305040004
:1036000023A0E6002322F4022320F402EFF01FA0FF
:10361000032481008320C100130101016FF09FB7D3
:10362000130101FD2324810223229102232021037F
:10363000232E3101232C4101232A5101232861012A
:10364000232671012326110213040500938B050024
:10365000130906009389060093040700138A0700E4
:10366000930A0800138B0800631E05001306200F41
:1036700097A500009385C5F117A50000130505EF78
:10368000EFE0DFDD639E04001306300F97A5000016
:10369000938505F017A500001305C5F8EFE01FDCC2
:1036A00013860B001305040093051000EFF08FD56F
:1036B00013050400032481028320C102832BC1006F
:1036C00013080B0093870A00032B0101832A410191
:1036D00013070A0093860400032A81018324410210
:1036E00013860900930509008329C10103290102FA
:1036F000130101036FF09FD69387418803A507004C
:1037000067800000130101FD2320210313890500B8
:103710009305050013051000232481022322910242
:10372000232E3101232C4101232611022326C1001F
:103730009384060093090700138A0700EFF08FE5D2
:10374000130405006300050213850400EFF00F80E9
:103750000326C100631A050213050400EFF00FF5FC
:1037600013040000130504008320C1020324810216
:1037700083244102032901028329C101032A810113
:1037800013010103678000009306050013080A0077
:1037900093870900138704009305090013050400AB
:1037A000EFF0DFCB6FF01FFC130101FF232481003A
:1037B0002326110023229100232021011304050058
:1037C000631E05001306702E97A50000938585DF04
:1037D00017A50000130585D9EFE05FC813050400A5
:1037E000EFF00FFB93071000630EF5001306802E19
:1037F00097A50000938505DD17A50000130505EDCD
:10380000EFE0DFC583470404130710001305F0FF42
:1038100013F9770093F75700639EE706EF0010480F
:1038200093073000930405006314F90293874188DD
:1038300083A70700630EF4001306902F97A50000DE
:10384000938545D817A500001305C5E2EFE01FC119
:1038500013050400EFF0DF85834704041305840596
:1038600093F787FF93E727002300F404EF00005E3F
:1038700013850400EF0010439387418A83A7070054
:10388000130500006388070013050400E7800700A4
:10389000130500008320C10003248100832441001C
:1038A000032901001301010167800000130101FEDB
:1038B00093874188232C810003A40700232E110045
:1038C000232A9100232821012326A100631E04003E
:1038D0001306D01F97A500009385C5CD17A500003E
:1038E0001305C5C8EFE09FB713050400EFF04FEADA
:1038F00093071000630EF5001306E01F97A5000064
:10390000938545CB17A50000130545DCEFE01FB5F7
:10391000EF00D0381309050013050400EFF0DFE8CD
:10392000930484051306C100930500001385040069
:10393000EF00405D13850400EF00403813050900D7
:10394000EF005036EFF01F850327C4039307E0FF15
:103950006314F700232E04028320C1010324810194
:103960008324410103290101130500001301010211
:10397000678000006FF09FF3130101FF2326110001
:10398000EFC09FFA8320C100130101016FF01FF205
:10399000130101FF2324810023261100232291001B
:1039A00013040500631E05001306703197A500007F
:1039B000938585C217A50000130545BBEFE01FAA3C
:1039C00013050400EFF0CFDC93071000630EF50041
:1039D0001306803197A50000938505C017A5000048
:1039E0001305C5CEEFE09FA783470404130720000B
:1039F0001305F0FF93F777006390E706EF00102AB6
:103A0000032704028326440293070402930405005B
:103A10002322D700832644021305840523A0E60051
:103A20002322F4022320F402EF0040421385040015
:103A3000EF00502713050400EFF04FDD9387018A54
:103A400083A707001305000063880700130504001F
:103A5000E7800700130500008320C10003248100D4
:103A6000832441001301010167800000130101FF5D
:103A7000232481002326110013040500631E050082
:103A80001306401297A50000938585B117A5000085
:103A90001305C5ADEFE09F9C8347040493F77700BF
:103AA000638E07001306501297A50000938545AF5B
:103AB00017A50000130585B8EFE05F9A1305040011
:103AC000EFF00FCD93071000630EF50013066012A0
:103AD00097A500009385C5AC17A50000130505BF89
:103AE000EFE0DF9703472404930710001305040059
:103AF000B397E7002322F404930720002300F40483
:103B0000A300E404EFF0DFE89387418883A7070070
:103B100063840700EFF00FE88320C10003248100D5
:103B20001305000013010101678000008326450290
:103B300003270502930705022322D70083264502A7
:103B400023A0E6002322F5022320F502678000006F
:103B5000130101FE232C8100232A91002328210137
:103B6000232631012324410123225101232E110058
:103B700013040500938A0500130A060093890600C2
:103B80001309070093840700631E05001306900CB9
:103B900097A50000938505B917A500001305C5C4B6
:103BA000EFE0DF8B13860A00130504009305A000E5
:103BB000EFF04F8593F4E4FFA30A94009307040207
:103BC000232444032326340323282403232A040222
:103BD0002322F4022320F4028320C1010324810163
:103BE00083244101032901018329C100032A8100A3
:103BF000832A41001301010267800000130101FFC5
:103C000023248100232611002322910013040500A0
:103C1000631E05001306E00D97A50000938585B18E
:103C200017A50000130545BCEFE05F8313050400F2
:103C3000EFF00FB69307A000630EF5001306F00D2A
:103C400097A50000938505AF17A50000130545B3A0
:103C5000EFE0DF8013050400EFF04FAF631E0500B7
:103C60001306000E97A500009385C5AC17A50000AC
:103C70001305C5B4EFE08FFEEF005002930405007A
:103C800013050400EFF09FEA8347540113850400F5
:103C900093F7E7FFA30AF400EF00D0001305040038
:103CA000EFF0CF878320C1000324810083244100EB
:103CB000130500001301010167800000130101FFDB
:103CC00023248100232611002322910013040500E0
:103CD000631E05001306501497A50000938585A662
:103CE00017A50000130545B0EFE04FF713050400DA
:103CF000EFF00FAA9307A000630EF50013066014FF
:103D000097A50000938505A417A50000130545A7F6
:103D1000EFE0CFF4EF008078930405001305040072
:103D2000EFF0DFE0834754011385040093F7E7FFCA
:103D3000A30AF400EF0000779387818783A7070029
:103D40006386070013050400E780070003270403C8
:103D5000B707008093C7E7FF63FEE700130660150F
:103D600097A500009385059E17A50000130505A9DA
:103D7000EFE0CFEEEFC0DFB4832704033385A70065
:103D8000232AA402EF008071034754019387C18B5B
:103D900013774700630407009387C18A03A847008D
:103DA000370600801346E6FF03A707006312F808F2
:103DB0009386818A83A606009386160023A4D18A5F
:103DC000930604022322D7002320E40223A0D70075
:103DD0002322F4028347540193E71700A30AF40057
:103DE000EF00406C8347540193F747006386070256
:103DF00003C70181930710006310F702138501D6F2
:103E0000834705041307200093F777006396E700C4
:103E1000EFF01FB8EFF00FB88320C100032481003A
:103E20008324410013050000130101016780000095
:103E300083264701832544036386B600B386B640D4
:103E4000E378D6F6930707006FF01FF6130101FF22
:103E5000232481002326110023229100130405004E
:103E6000631E05001306F01B97A500009385858E41
:103E700017A5000013054597EFE04FDE130504007A
:103E8000EFF00F919307A000630EF5001306001CDE
:103E900097A500009385058C17A500001305458E96
:103EA000EFE0CFDB834754011305F0FF93F71700D2
:103EB000638007049387418783A707006386070011
:103EC00013050400E7800700EF00405D9304050040
:103ED00013050400EFF09FC58347540113850400C8
:103EE00093F7E7FFA30AF400EF00C05B130500009F
:103EF0008320C100032481008324410013010101B8
:103F000067800000130101FF232481002322910018
:103F100023202101232611001304050093840500AA
:103F200013090600631E05001306301E97A5000046
:103F30009385458317A500001305058BEFE00FD28D
:103F400013050400EFF0CF849307A000630EF50083
:103F50001306401E97A500009385C58017A5000095
:103F600013050582EFE08FCFEF0040539307400029
:103F700063EA970217970000130787799394240048
:103F8000B384E40083A70400B387E70067800700D9
:103F9000832704032320F9006F00C0008327090052
:103FA0002328F402EF0000508320C1000324810085
:103FB00083244100032901001305000013010101BE
:103FC000678000008347540193F7D7FFA30AF400EA
:103FD0006FF05FFD8347540193E727006FF01FFFE9
:103FE0008347540193F71700638607009307100077
:103FF0006FF05FFA232009006FF0DFFA130101FC74
:10400000232A910293048100232E110223263103D7
:10401000232441032322510323206103232E710112
:10402000232C8101232A9101232C8102232821039F
:104030002324910023269100EFC09F88930C050054
:10404000B7090080EF008045930A0500138AC18BF1
:1040500093C9E9FF138B418B938B818B130C300039
:1040600003240A006310440513850A00EF0080430F
:104070008320C10303248103832441030329010313
:104080008329C102032A8102832A4102032B0102F0
:10409000832BC101032C8101832C410113010104F5
:1040A0006780000003254401130904FE3385AC40FA
:1040B000E3ECA9FA83270B006386070013050900C8
:1040C000E780070013050900EFF05FA6834754FF60
:1040D00013F727006316070093F7E7FFA30AF4FE20
:1040E000832781000325C40023A287002320F40036
:1040F000832784002324810023229400E780070083
:10410000EFC00FFC83A70B00930C0500638607002C
:1041100013050900E780070083278100E38297F4F5
:10412000834754FF13F73700E31C87F393F7E7FF48
:10413000A30AF4FE13050900EFF05FB86FF05FF219
:10414000130101FC232A91029304810023263103E9
:10415000232441032322510323206103232E7101D1
:10416000232C8101232A9101232E1102232C810269
:10417000232821032324910023269100370A00805D
:10418000EF00C03193090500938AC18A134AEAFF00
:10419000138B418B938B818B130C1000930C30008D
:1041A00003A40A00630C5401EFC08FF1832744017C
:1041B000130904FE3305F5406370AA041385090052
:1041C000EF00402E8320C103032481038324410395
:1041D000032901038329C102032A8102832A4102A0
:1041E000032B0102832BC101032C8101832C41018C
:1041F000130101046780000083270B00638607001A
:1042000013050900E780070013050900EFF01F926E
:10421000834754FF13F727006316070093F7E7FF60
:10422000A30AF4FE832781001385090023A28700D7
:104230002320F4002322940023880180232481007A
:10424000EF004026832784000325C400E780070091
:1042500083A70B006386070013050900E7800700AA
:10426000EF00C02323888181832781009309050003
:10427000E38897F2834754FF13F73700E31297F36D
:1042800093F7E7FFA30AF4FE13050900EFF01FA35D
:104290006FF01FF1130101FE232A9100B704008083
:1042A0002328210123263101232E1100232C8100F4
:1042B0001389C18A9309F0FF93C4E4FFEF00001E45
:1042C000832709001304F0FF6384270103A4470137
:1042D000EF00401D631C3401EFF00FC2EFF0CFCCB4
:1042E000EFE05FEBEFF0DFE56FF05FFDEFC04FDD7C
:1042F0003305A440E3E8A4FEEFF0CFE76FF09FFEA4
:104300009387C18B23A2F70023A0F70067800000EA
:10431000130101FF23248100232611009387C18A02
:10432000138401D623A2F70023A0F700130504008D
:104330009308A0001308400093070020138781DF33
:104340009306000017060000130606F59795000077
:1043500093858542EFF0CFAC130504000324810060
:104360008320C100130101016FF04FF037C5000039
:10437000130101FF130505359305000023261100E5
:10438000EFC00F8AEFD04FD6EFC08FD48320C1008B
:10439000130101016FD0CFD9130646001376C6FF73
:1043A0001308050037C7ADDE130586F8930705002F
:1043B0001307F7EE6310F602B747000093870788EC
:1043C0002326D6F82322B6FA232406F9232EF6FE56
:1043D0006780000023A0E700938747006FF09FFDF0
:1043E0009387C18C83A70700130101FF23261100C7
:1043F0006394070023A2A18C23A4B18C930710001F
:1044000023A6F18CEFB0DFFC0F00F00F0F100000BF
:104410008320C1001301010167800000130101FF27
:1044200023A2A18C2326110023A4B18CEFB05FFA44
:104430000F00F00F0F1000008320C10013010101D5
:1044400067800000130101FF23261100EFB09FF9E0
:104450008320C10023A6018C1301010167800000A5
:1044600037C50000130101FF130505359305000052
:1044700023261100EFB09FF897050000938545EFC4
:1044800013057000EF000015EF00C003EF004004BB
:104490008320C100130101016FB01FF67375043052
:1044A000678000007310053067800000130101FF72
:1044B000179500001305053E23261100EFD05FE29B
:1044C0006F0000009307000873A04730678000006A
:1044D0007360443067800000B7170000938707803F
:1044E00073B0473067800000B707008093C7F7FFBD
:1044F000130101FEB377F500232C8100232E110058
:104500002326F100139427001307B0006356050417
:10451000637EF7001306500397950000938545309E
:104520001795000013050533EFD05FF393071000D4
:104530002324F10093878102B387870083A70700B4
:1045400013058100E78007008320C1010324810156
:104550001301010267800000637EF7001306B003B9
:10456000979500009385C52B17950000130585309E
:10457000EFD0DFEE23240100938781FF6FF0DFFB94
:10458000970700009387072873905730970600001D
:10459000938606F213878102930700009305C000FB
:1045A000138606002320D7009387170013074700C0
:1045B000E39AB7FE138781FF930700009306C000BC
:1045C0002320C7009387170013074700E39AD7FEFD
:1045D00067800000130101FF232481002322910042
:1045E000232611009307B0001304050093840500EF
:1045F00063FEA70013065005979500009385C52319
:104600001795000013050525EFD05FE5131424006E
:104610009387810233848700232094008320C10084
:1046200003248100832441001301010167800000FD
:1046300097C203009382029D739002340321050008
:104640008322010073901234832241077390023059
:1046500083204100832281000323C10083230101C1
:1046600003244101832481010325C1018325010223
:1046700003264102832681020327C1028327010307
:1046800003284103832881030329C10383290104EB
:10469000032A4104832A8104032BC104832B0105CF
:1046A000032C4105832C8105032DC105832D0106B3
:1046B000032E4106832E8106032FC106832F010797
:1046C0001301810773002030130181F823221100A8
:1046D000232451002326610023287100232A81000E
:1046E000232C9100232EA1002320B1022322C102FA
:1046F0002324D1022326E1022328F102232A0103E5
:10470000232C1103232E21032320310523224105CD
:10471000232451052326610523287105232A8105B9
:10472000232C9105232EA1052320B1072322C107A5
:104730002324D1072326E1072328F107F3220030A1
:10474000232A510683A2418C23A02200F322103495
:1047500023205100EFF01FCF83A2818C03A1020020
:104760008322010073901234832241077390023038
:1047700083204100832281000323C10083230101A0
:1047800003244101832481010325C1018325010202
:1047900003264102832681020327C10283270103E6
:1047A00003284103832881030329C10383290104CA
:1047B000032A4104832A8104032BC104832B0105AE
:1047C000032C4105832C8105032DC105832D010692
:1047D000032E4106832E8106032FC106832F010776
:1047E000130181077300203000000000000000006A
:1047F00000000000000000000000000000000000B9
:1048000073110134130101FB232011002322410005
:10481000232451002326610023287100232AA100AC
:10482000232CB100232EC1002320D1022322E10238
:104830002324F102232C0103232E11032320C1057D
:104840002322D1052324E1052326F105F322203478
:1048500023265102F322103423285102232A010275
:104860007325203493050100930210009392F20106
:1048700093E2320063045506EFF01FC78322010361
:10488000739012348322C10273902234832001007A
:1048900003224100832281000323C10083230101FD
:1048A00003254101832581010326C10183260102DD
:1048B0000327410283278102032881038328C10340
:1048C000032E0104832E4104032F8104832FC1048E
:1048D0001301010573110134730020308322010399
:1048E000739012348322C10273902234832001001A
:1048F00003224100832281000323C100832301019D
:1049000003254101832581010326C101832601027C
:104910000327410283278102032881038328C103DF
:10492000032E0104832E4104032F8104832FC1042D
:1049300013010105731101346FF01FD9000000004D
:10494000130500006780000067800000130101FF6D
:10495000232481002326110013040500631E050093
:104960001306500197950000938545F517950000B3
:10497000130585F8EFD09FAEEFF05FB293074400C8
:10498000232004002324F4002322F40003248100C4
:104990008320C100130101016FF0DFB0130101FD9D
:1049A00023248102232611022322910223202103A2
:1049B000232E3101232C41012326B10013040500CD
:1049C000631E05001306400297950000938545F08D
:1049D00017950000130545F2EFD05FA8EFE0DFD197
:1049E00093040500EFF09FAB03270400930710002A
:1049F000930905006304F71083274400130A440059
:104A0000630EFA001306D00297950000938545ECDB
:104A1000179500001305C5EFEFD05FA48327C100F1
:104A20001309E0FF6386070A23AE0402138504001E
:104A3000EFE09FD703278400938704022320F70029
:104A400023A2E4022324F40023A04403EFF01FA5D3
:104A500013090500EFC05FF2630805029795000097
:104A6000938505E71785000013050533EFD05F87B1
:104A70001306000497950000938585E517850000CF
:104A800013050534EFD09F9D13050900EFF09FA19A
:104A90008327C1006350F002138984051306C10007
:104AA0009305000013050900EFF0CFC513050900B9
:104AB000EFF0CFA013850900EFF0DF9EEFE08FED60
:104AC00003A9C403EFF09F9D930905002320040070
:104AD00013850900EFF01F9D8320C102032481028A
:104AE0001305090083244102032901028329C1011E
:104AF000032A8101130101036780000013090000EC
:104B00006FF0DFFC130101FF232481002326110035
:104B1000232291002320210113040500631E0500B8
:104B200013064006979500009385C5DB1795000096
:104B3000130585DCEFD09F928327040093041000B7
:104B4000638E9704EFF09F95832744002320940001
:104B5000130444001309050063868702138507FECA
:104B6000EFE01FE313050900EFF0DF93032481005A
:104B70008320C100832441000329010013010101A6
:104B80006FE04FE1032481008320C10083244100B2
:104B900003290100130101016FF0DF908320C100A0
:104BA0000324810083244100032901001301010132
:104BB00067800000032745008327050023A2E70044
:104BC000032745002320F7002322A5002320A5006A
:104BD00067800000130101FE232A9100232E11009B
:104BE000232C810023282101232631012324410184
:104BF00093040500631E05001306900397950000BB
:104C0000938505D4179500001305C5D6EFD01F85F1
:104C10001389C4009309E0FF83A704006398F4009C
:104C2000EFE09FADEFE05FB8EFE0CFD6EFF01F878A
:104C300003A40400130A050013050400EFF09FF716
:104C40008357040123A4840013050A0093F7E7FFA8
:104C50002318F40023260404EFF0DF848327840064
:104C60008325C40013050400E7800700EFF01F83CD
:104C700023A40400EFF01F83EFE0CFEC130509003D
:104C8000EFC09FB76318350113050900EFC05FB788
:104C90006FF0DFFEEFE08FED6FF01FF8130101FE04
:104CA000232A9100930405001305C003232C8100DF
:104CB0002328210123263101232E11001389050009
:104CC00093090600EFD09FA813040500630E0504A6
:104CD0002322A4002320A40023240500930600001F
:104CE00013060000979500009385C5CA1305C500FB
:104CF000EFC00FEF9307A000138709009306090088
:104D00001306040097050000938505ED1385040044
:104D1000EFE05F9F232CA402631805021305040033
:104D2000EFD01FCD13040000130504008320C10140
:104D30000324810183244101032901018329C10046
:104D40001301010267800000EFE05FD26FF0DFFD2A
:104D50009387018D83A70700639C0702B7150000A6
:104D6000130101FF1306700193850580179500005C
:104D7000130585C123261100EFF05FF28320C100E7
:104D800023A8A18C13050000130101016780000016
:104D900013050000678000009387810503A70705BE
:104DA000130101FF232481002322910023202101EC
:104DB00023261100930405001389050013840700BE
:104DC000631E07001306800897950000938505BDB4
:104DD00017950000130585CAEFD04FE88327040517
:104DE000032481008320C10003A3070013060900E8
:104DF0009385040003290100832441001385810564
:104E000013010101670003009387810503A70705CC
:104E1000130101FF2324810023229100232021017B
:104E2000232611009304050013890500138407004D
:104E3000631E07001306F008979500009385C5B61A
:104E400017950000130585C3EFD04FE183270405B4
:104E5000032481008320C10003A347001306090037
:104E600093850400032901008324410013858105F3
:104E700013010101670003009387810503A707055C
:104E8000130101FF23248100232291002326110016
:104E90009304050013840700631E070013066009CE
:104EA00097950000938545B117950000130505BD42
:104EB000EFD0CFDA83270405032481008320C100CB
:104EC00003A3870093850400832441001385810593
:104ED00013010101670003009387810503A70705FC
:104EE000130101FF232481002322910023261100B6
:104EF0009304050013840700631E07001306D009FE
:104F000097950000938505AC17950000130505B72C
:104F1000EFD0CFD403C7040093070005630EF7005A
:104F20001306E009979500009385C5A91795000021
:104F30001305C5B3EFD08FD28327040503A38701E0
:104F4000630E0300032481008320C1001385040045
:104F50008324410013010101670003008320C10085
:104F600003248100832441001305A0FF13010101E4
:104F700067800000130101FF232481002326110014
:104F800013040500631E05001306B0239795000067
:104F9000938545B217850000130545D7EFD00FCC98
:104FA00083270405232E04042320040603A30700FB
:104FB000630E0300930544051305040003248100D8
:104FC0008320C10013010101670003008320C10099
:104FD0000324810013050000130101016780000014
:104FE000130101FE232C8100232A9100232E11009E
:104FF0002328210123263101130405009384050091
:10500000631E05001306E02497950000938585AB89
:1050100017850000130585CFEFD04FC493F7042008
:10502000638A070083574402130580FF93F7072024
:10503000638C0716B71700009387078033F7F400D7
:10504000630A070003574402130580FFB3F7E70024
:10505000638C071493F70410638A07000357440214
:10506000130580FF137707106300071493F90440BA
:10507000638A090003574402130580FF1377074032
:105080006304071213F704041309000463160700EE
:1050900003596402137909040327C40593F4F40F38
:1050A00023139402631007126386070803258405FF
:1050B0001355A50013150501135505011305C5006A
:1050C000EFD0CFE893040500631E05001306D02639
:1050D000979500009385059F17950000130545AE31
:1050E000EFD0CFB7032684051385C40093050000D5
:1050F0001356A600131606011356060123A0A4009A
:10510000EFC0DFAD23A2040023A404008357640290
:10511000232E94041306001093E707102313F402C0
:1051200083270405930500011305040083A74700A6
:10513000E780070083270406639E0708638E09043F
:105140001305C000EFD08FE093040500631E050037
:105150001306C02A979500009385C5961795000001
:10516000130545A7EFD08FAF13850400EFF00FFEB6
:1051700083576402232094061306004093E70740F8
:105180002313F4028327040593050001130504008B
:1051900083A74700E78007008357640213050000D8
:1051A0003369F900231324038320C10103248101FF
:1051B00083244101032901018329C1001301010254
:1051C00067800000E38807F693E404102313940239
:1051D0006FF05FF6E38209FC8357640293E70740B0
:1051E0002313F4026FF05FFB130101FF23248100FE
:1051F00023229100232021012326110013040500FE
:105200001389050093040600631E05001306203D64
:10521000979500009385058F17850000130505AF4E
:10522000EFD0CFA3930720006300F902930730006B
:105230006300F90493071000631CF90883574402C4
:1052400093F7F7FD6F00C0008357440293E707020E
:105250002312F402130500008320C10003248100FF
:10526000832441000329010013010101678000002C
:10527000E38204FE03A74400832784058346840257
:105280001357A70093D7A700131707019397070198
:105290001357070193D707016306F7001305700042
:1052A000E39C06FA83A70400232AF40483A744009E
:1052B000232CF404E38006FA832704059385040075
:1052C0001305040083A70700E78007006FF09FF82D
:1052D0008327040513050400032481008320C100F3
:1052E00003A34700138604009305090083244100AB
:1052F000032901001301010167000300130101FEEE
:10530000232C8100232A910023282101232E110020
:10531000232631012324410123225101232061014D
:10532000130405009304060013890600631E05009C
:1053300013065035978500009385C57B17850000BF
:105340001305C59CEFD08F916302090A835764024D
:1053500093090900338A240193F70740930AA000B8
:10536000638C070A032A0406631E0A001306C0138F
:105370009785000093850573179500001305C58672
:10538000EFD0CF8D130BA000930AF0FF83C704006A
:10539000639C67038357640293F7070463860702DD
:1053A000832704059305D0001305040083A7870015
:1053B000E7800700631A55019305F0FF13050A0003
:1053C000EFF0CFDD6FF09FFC8327040583C5040059
:1053D0001305040083A78700E7800700E30E55FD4F
:1053E0009389F9FF93841400E39209FA8320C101A1
:1053F00003248101130509008324410103290101CC
:105400008329C100032A8100832A4100032B010064
:10541000130101026780000083C7040063925703F1
:105420008357640293F70704638C070083270405FE
:105430009305D0001305040083A78700E7800700C9
:105440008327040583C504001305040083A7870090
:1054500093841400E7800700E39044FD6FF01FF988
:10546000130101FE232C8100232821012326310171
:10547000232E1100232A91002324410123225101CC
:105480002320610113090500930906001384060017
:10549000631E05001306B03397850000938585646D
:1054A0001785000013058586EFC05FFB630C0408B9
:1054B000835769029304040093F70710639E070261
:1054C000130AF0FF930AA0008327090513050900BA
:1054D00083A7C700E7800700630C45012380A9006C
:1054E0009384F4FF9389190063045501E39E04FC3F
:1054F000330494406F0000058324C905639E0400B3
:105500001306C010978500009385C55817850000C5
:105510001305056BEFC09FF4130A0400930A1000F3
:10552000EFE0DFF783D7640003D7440013060500DC
:1055300083A68400631EF702639C0602EFE09FF6D9
:1055400033044441130504008320C1010324810175
:1055500083244101032901018329C100032A810019
:10556000832A4100032B0100130101026780000020
:1055700003A704003307F700034B0700032789053F
:1055800093871700939707011357A70093D7070135
:10559000131707012393F4001357070163E4E7008F
:1055A000239304006394560123A40400130506000A
:1055B000EFE05FEF130AFAFF238069019389190076
:1055C000E3100AF66FF0DFF7130101FF23248100D7
:1055D000232611002322910013040500631E0500F9
:1055E0001306F02D978500009385C54E17750000B2
:1055F0001305C571EFC09FE60347840293071000AF
:1056000063EEE70A8357640293F70710638A07047F
:105610008324C405639E04001306A02E9785000012
:105620009385454B1785000013058559EFC01FE38F
:1056300013850400EFD0CFBB83576402232E0404EC
:105640001306001093F7F7EF2313F40283270405E2
:10565000930510011305040083A74700E7800700A6
:105660008357640293F70740638A07048324040680
:10567000639E0400130620319785000093858545BD
:105680001785000013050555EFC05FDD1385040085
:10569000EFD00FB6835764022320040613060040A0
:1056A00093F7F7BF2313F402832704059305100132
:1056B0001305040083A74700E78007008320C1008B
:1056C000032481008324410013050000130101011C
:1056D00067800000130101FE232C8100232A910022
:1056E00023282101232E11001304050093840500B3
:1056F00013090600631205021306E04797850000B0
:1057000093858541177500001305453D2326D1007B
:10571000EFC0DFD48326C100970700009387C785B9
:10572000232AF402970700009387C78B232CF402E7
:1057300097070000938787E9232EF402970700005C
:10574000938747D22320F40497070000938747BB31
:105750002322F40497070000938747A9232004021B
:1057600023260402232804022324F4042326D40439
:105770001305040003248101131609018320C101CC
:105780000329010193850400832441011356060176
:10579000130101026FB0CFC793F5F50F9307100007
:1057A0006388F50093072000638CF51A678000007A
:1057B000130101FC232C81020324C505232A910235
:1057C000232E1102232821032326310323244103FE
:1057D0002322510323206103232E7101232C8101F5
:1057E000232A910193040500631E04001306A04AB6
:1057F000978500009385C533178500001305453C48
:10580000EFC0DFC59309F0FF13091000138A418D23
:10581000978A0000938A0A33178B0000130B8B338F
:10582000978B0000938B4B3983A7040513850400E5
:1058300083A7C700E7800700130C05006300350B42
:10584000EFE0DFC50357440083270400930C0500F5
:10585000B387E700238087018357440003A78405AB
:1058600093871700939707011357A70093D7070152
:10587000131707012312F4001357070163E4E7002D
:105880002312040083564400835764006392D704B4
:10589000938717009397070193D707012313F40009
:1058A0002324240163E4E7002313040083270A0070
:1058B0006390070213850A00EFC09FA213050B0037
:1058C000EFC01FA213850B00EFC09FA123AA218D5B
:1058D00013850C00EFE01FBD6FF01FF583A7C40216
:1058E00063840708EFE09FBB0357440083556400BF
:1058F000636AB704B305B7402326B100EFE09FBA4F
:105900008325C100638205060324810303A3C40227
:105910008320C103032901038329C102032A8102D1
:10592000832A4102032B0102832BC101032C810135
:10593000832C4101138504008324410313010104D6
:105940006700030083A78405B385E54093D7A700CC
:105950009397070193D70701B385B7406FF0DFF93D
:10596000032505066FF00F9A8320C10303248103EA
:1059700083244103032901038329C102032A8102ED
:10598000832A4102032B0102832BC101032C8101D5
:10599000832C410113010104678000009387C18EAD
:1059A00003A70700130101FF232481002326110010
:1059B00013840700631E07001306F00B9785000091
:1059C00093850526178500001305852CEFC01FA9B8
:1059D00003250400EFB0DFE28320C100032481002F
:1059E0001305000013010101678000009387C18E39
:1059F00083A7070083C7070393F72700639807006F
:105A00002386010A1385C10A678000009387818E6F
:105A100083A50700130101FF2326110063800502FF
:105A2000130600081385C10AEF60D0328320C1003D
:105A30001385C10A1301010167800000EF1010787F
:105A40009785000093854521631605009785000022
:105A5000938505211385C10AEF6090289785000082
:105A6000938585201385C10AEF60D00C6FF01FFC71
:105A7000130101FF23248100130405001785000092
:105A80001305452823261100EFC09F85EFF01FF670
:105A90001306442693050500178500001305052706
:105AA000EFC01F848320C100032481001305000080
:105AB00013010101678000009387C18E03A70700CF
:105AC000130101FF232481002322910023261100CA
:105AD0001304050093840700631E07001306300AB1
:105AE0009785000093854511178500001305451A19
:105AF000EFC0DF9683A7040013741400131414007E
:105B000003C507038320C100832441001375D5FF1B
